:100000000C9483000C9432070C945F070C94AB00A3
:100010000C94AB000C94AB000C94AB000C94AB00B4
:100020000C94AB000C94AB000C94AB000C94AB00A4
:100030000C94AB000C94AB000C94AB000C94AB0094
:100040000C948C070C94AB000C94990E0C94DC0E61
:100050000C94AB000C94AB000C94AB000C94AB0074
:100060000C94AB000C94AB00084AD73B3BCE016E1E
:1000700084BCBFFDC12F3D6C74319ABD56833DDAFF
:100080003D00C77F11BED9E4BB4C3E916BAAAABE0E
:10009000000000803F05A84CCDB2D44EB93836A937
:1000A000020C50B9918688083CA6AAAA2ABE000074
:1000B00000803F000000000700020100000304066A
:1000C0000000000000000000010204081020408031
:1000D0000102040810200102040810200404040492
:1000E00004040404020202020202030303030303E2
:1000F00000000000250028002B0000000000240064
:1001000027002A00980F11241FBECFEFD8E0DEBFD2
:10011000CDBF12E0A0E0B1E0E0E7FBE202C0059055
:100120000D92AA31B107D9F722E0AAE1B2E001C0ED
:100130001D92A53EB207E1F711E0C6E0D1E004C090
:100140002297FE010E94A315C430D107C9F70E946F
:10015000FA0D0C94FE110C9400008F929F92AF92B6
:10016000BF92CF92DF92EF92FF92F89460912602B5
:100170007091270280910101882331F0809126023D
:1001800090912702019605C0809126029091270246
:1001900001979093270280932602809126029091E6
:1001A0002702681B790B882777FD8095982F0E947E
:1001B00083132FE936E244E95FE30E949C146B014C
:1001C0007C018090220290902302A0902402B090A3
:1001D000250220E030E040E951E40E94E8129B0152
:1001E000AC01C501B4010E941A120E9486046093FA
:1001F0002202709323028093240290932502809020
:100200001E0290901F02A0902002B09021026091E7
:1002100022027091230280912402909125020E9473
:10022000E512A70196010E949C149B01AC01C50137
:10023000B4010E941B1260931E0270931F028093F0
:1002400020029093210280901A0290901B02A090AD
:100250001C02B0901D0260912202709123028091D5
:100260002402909125020E94FF14A70196010E948A
:100270009C149B01AC01C501B4010E941B12609348
:100280001A0270931B0280931C0290931D027894B3
:10029000FF90EF90DF90CF90BF90AF909F908F90A6
:1002A00008958F929F92AF92BF92CF92DF92EF927A
:1002B000FF92F894609128027091290280910001C8
:1002C000882331F08091280290912902019605C07F
:1002D000809128029091290201979093290280939E
:1002E00028028091280290912902681B790B8827A7
:1002F00077FD8095982F0E9483132FE936E244E919
:100300005FE30E949C146B017C018090220290901C
:100310002302A0902402B090250220E030E040E9C2
:1003200051E40E94E8129B01AC01C501B4010E9496
:100330001A120E9486046093220270932302809313
:1003400024029093250280901E0290901F02A0909C
:100350002002B090210260912202709123028091CC
:100360002402909125020E94E512A70196010E94A5
:100370009C149B01AC01C501B4010E941B12609347
:100380001E0270931F02809320029093210280909E
:100390001A0290901B02A0901C02B0901D02609166
:1003A00022027091230280912402909125020E94E2
:1003B000FF14A70196010E949C149B01AC01C5018A
:1003C000B4010E941B1260931A0270931B02809367
:1003D0001C0290931D027894FF90EF90DF90CF90D5
:1003E000BF90AF909F908F90089560E070E085E09F
:1003F0000E94830860E070E08AE00E94830860E069
:1004000070E086E00E94830860E070E089E00C9470
:1004100083084F925F926F927F928F929F92AF92DA
:10042000BF92CF92DF92EF92FF920F931F93CF93E1
:10043000DF9369017A019B01AC010E941B124B0101
:100440005C0120E030E040E951E4C701B6010E94C0
:100450009C142B013C019B01AC01C501B4010E941D
:100460001A1220E030E040EE50E40E94E81220E052
:1004700030E04FE753E40E949C1420E030E040E27B
:1004800051E40E94E8120E9450136B017C01EB01C1
:10049000A3019201C501B4010E941B1220E030E0CB
:1004A00040EE50E40E94E81220E030E04FE753E4D1
:1004B0000E949C1420E030E040E251E40E94E812E7
:1004C0000E9450134B015C018B0181E01814190448
:1004D0000CF080E08093010181E01C161D060CF0F9
:1004E00080E0809300010E94F501B40117FF02C073
:1004F00060E070E085E00E948308101611062CF081
:10050000662777276819790902C060E070E086E005
:100510000E948308B601D7FF02C060E070E08AE065
:100520000E9483081C161D062CF0662777276C197D
:100530007D0902C060E070E089E0DF91CF911F91FA
:100540000F91FF90EF90DF90CF90BF90AF909F9072
:100550008F907F906F905F904F900C9483082F92B4
:100560003F924F925F926F927F928F929F92AF9243
:10057000BF92CF92DF92EF92FF920F931F93CF9390
:10058000DF9300D000D0CDB7DEB74B015C016091A6
:1005900022027091230280912402909125020E94F0
:1005A00086049B01AC01C501B4010E941A120E948D
:1005B00086048B018C839B83C12CD12C7601B801DE
:1005C0008C819B810E94860420E030E0A9010E947A
:1005D0009114B80118160CF063C08C819B810E94A5
:1005E000860426EB30E549EA5DE30E94911487FD1D
:1005F00064C0209122023091230240912402509144
:100600002502C501B4010E941A120E9486041B0132
:1006100089839A83A70196010E941B122B013C013A
:1006200098014C815B81B10189819A810E941A12E3
:1006300026E636E646E050E40E949C142FE632E1BE
:1006400043E85AE30E94E8129B01AC01C301B201E6
:100650000E941B122B013C012FE632E143E85AE3D2
:10066000B10189819A810E949C149B01AC01C70150
:10067000B6010E941B126B017C01A301920160E094
:1006800070E0CB010E94090261E070E080E090E040
:100690000E940508810189818C83EA81EB838FCFD9
:1006A0008C819B810E94860426EB30E549EA5DEB54
:1006B0000E94E11218160CF09CCF0F900F900F9033
:1006C0000F90DF91CF911F910F91FF90EF90DF90EE
:1006D000CF90BF90AF909F908F907F906F905F90E2
:1006E0004F903F902F900C94F5014F925F926F9234
:1006F0007F928F929F92AF92BF92CF92DF92EF92B2
:10070000FF92CF93DF93CDB7DEB72C970FB6F89457
:10071000DEBF0FBECDBF6D837E838F839887298711
:100720003A874B875C8720911E0230911F024091CF
:100730002002509121020E941A126B017C0120912B
:100740001A0230911B0240911C0250911D026985D2
:100750007A858B859C850E941A124B015C01A7014A
:100760009601C701B6010E949C142B013C01A50112
:100770009401C501B4010E949C149B01AC01C3010A
:10078000B2010E941B120E94091569837A838B8330
:100790009C83A7019601C501B4010E948E1220918D
:1007A00022023091230240912402509125020E949E
:1007B0001A120E9486042B013C0120E030E040E840
:1007C0005FE369817A818B819C810E949114181664
:1007D0000CF086C020E030E0A901C301B2010E9404
:1007E000911418165CF426EB30E549E25EE3C30190
:1007F000B2010E94911487FF0BC014C026EB30E5B4
:1008000049E25EEBC301B2010E94E112181654F0F6
:100810000E94F501A7019601C501B4010E948E1244
:100820000E94AF0220E030E0A90160E070E080E2C9
:1008300091E40E94090220911E0230911F02409112
:100840002002509121026D817E818F8198850E94C6
:100850001A126B017C0120911A0230911B02409107
:100860001C0250911D0269857A858B859C850E94AA
:100870001A124B015C01A7019601C701B6010E9443
:100880009C142B013C01A5019401C501B4010E94F7
:100890009C149B01AC01C301B2010E941B120E9477
:1008A000091569837A838B839C83A7019601C5010F
:1008B000B4010E948E1220912202309123024091B5
:1008C0002402509125020E941A120E9486042B01D4
:1008D0003C0161E070E080E090E00E9405086DCF8F
:1008E0002C960FB6F894DEBF0FBECDBFDF91CF912F
:1008F000FF90EF90DF90CF90BF90AF909F908F9040
:100900007F906F905F904F900C94F501CF92DF92A3
:10091000EF92FF92CF93DF9300D000D0CDB7DEB738
:100920006B017C010E94E5129B01AC01C701B6017D
:1009300029833A834B835C830E94FF1429813A8187
:100940004B815C810F900F900F900F90DF91CF91B2
:10095000FF90EF90DF90CF900C948E1280E10E9478
:100960006608BC01882777FD8095982F0E94831325
:1009700020E030E040EA5CE30E949C14089540E0EF
:1009800052EC61E070E087E392E00E94170F61E0B3
:1009900085E00E940B0961E086E00E940B0961E09E
:1009A00089E00E940B0961E08AE00E940B0961E086
:1009B0008BE00E940B0961E08CE00E940B0961E072
:1009C0008DE00E940B0941E050E06DEA70E081E0AB
:1009D0000E94120741E050E061E571E080E00E9472
:1009E000120778940895CF93DF9300D000D0CDB74D
:1009F000DEB787E392E00E94170E809729F487E321
:100A000092E00E94300EF5CF87E392E00E94170E2D
:100A10008D9729F020E030E040E85FE304C020E05B
:100A200030E040E85FEB87E392E029833A834B8331
:100A30005C830E94EC0C29813A814B815C810E948D
:100A40009C140F900F900F900F90DF91CF9108950D
:100A5000CF92DF92EF92FF92CF93DF93CDB7DEB7C5
:100A60002E970FB6F894DEBF0FBECDBF87E392E09E
:100A70000E94070E892B09F4C8C140E267E372E0C7
:100A8000CE0108960E94EF0C69E071E0CE01089655
:100A90000E94DB0D811108C062E171E0CE01089671
:100AA0000E94DB0D882331F10E94AE04AB01BC0132
:100AB00022E030E087E392E00E94610B4AE067E3C6
:100AC00072E0CE0101960E94EF0CCE0101960E94C9
:100AD000170D62E871E0CE0108960E94DB0D8111CE
:100AE0004FC165E871E0CE0108960E94DB0D8111CF
:100AF00047C159C165E971E0CE0108960E94DB0D3E
:100B0000811108C06CE171E0CE0108960E94DB0DF6
:100B1000882371F00E94F3046B017C010E94F304AE
:100B20009B01AC015058C701B6010E940902C6CF13
:100B30006DE971E0CE0108960E94DB0D811108C0BD
:100B400063E271E0CE0108960E94DB0D882319F064
:100B50000E94F501B3CF63EA71E0CE0108960E94CE
:100B6000DB0D811108C06AE271E0CE0108960E9497
:100B7000DB0D882311F061E031C068EA71E0CE013D
:100B800008960E94DB0D81112DC060E371E0CE015B
:100B900008960E94DB0D811125C06DEA71E0CE013F
:100BA00008960E94DB0D811120C066E371E0CE0142
:100BB00008960E94DB0D811118C062EB71E0CE0136
:100BC00008960E94DB0D811108C06CE371E0CE0134
:100BD00008960E94DB0D882359F060E08BE00E94AC
:100BE00044096CCF61E08DE0FACF61E08CE0F7CF93
:100BF00068EB71E0CE0108960E94DB0D811108C000
:100C000063E471E0CE0108960E94DB0D882311F0A9
:100C100060E0ECCF6EEB71E0CE0108960E94DB0D38
:100C2000811108C06AE471E0CE0108960E94DB0DD4
:100C3000882311F060E0D7CF64EC71E0CE01089614
:100C40000E94DB0D811108C061E571E0CE010896BC
:100C50000E94DB0D882359F087E392E00E945A0C32
:100C60008AE00E94830860E070E089E051C06BEC8C
:100C700071E0CE0108960E94DB0D811108C069E584
:100C800071E0CE0108960E94DB0D882359F087E3BE
:100C900092E00E945A0C89E00E94830860E070E0B4
:100CA0008AE036C062ED71E0CE0108960E94DB0D4D
:100CB000811119C061E671E0CE0108960E94DB0D3A
:100CC000811111C069ED71E0CE0108960E94DB0D23
:100CD000811114C069E671E0CE0108960E94DB0D17
:100CE00081110CC018C087E392E00E945A0C85E085
:100CF0000E94830860E070E086E00AC087E392E02B
:100D00000E945A0C86E00E94830860E070E085E053
:100D10000E948308D3CE60EE71E0CE0108960E9457
:100D2000DB0D811108C061E771E0CE0108960E94D9
:100D3000DB0D882339F087E392E00E94EC0C0E94DF
:100D4000AF02BCCE6AEE71E0CE0108960E94DB0DC8
:100D5000811109C06CE771E0CE0108960E94DB0D9D
:100D6000882309F4ABCE0E94F3046B017C010E943E
:100D7000F3049B01AC01C701B6010E9475039ECE2E
:100D800040911E0250911F02609120027091210239
:100D900022E030E087E392E00E94610BCE010896EA
:100DA0000E94170D32C061EF71E0CE0108960E94DB
:100DB000DB0D811108C069E871E0CE0108960E9440
:100DC000DB0D882349F040911A0250911B0260917B
:100DD0001C0270911D02DCCF64EF71E0CE01089619
:100DE0000E94DB0D811108C06DE871E0CE0108960C
:100DF0000E94DB0D882391F2409122025091230240
:100E00006091240270912502C3CF2E960FB6F894FC
:100E1000DEBF0FBECDBFDF91CF91FF90EF90DF908F
:100E2000CF9008958230E8F4E82FF0E0EE0FFF1F36
:100E3000E65DFD4F71836083813041F080916900F0
:100E40008C7F842B80936900E89A089580916900D3
:100E5000440F551F440F551F837F842B80936900D7
:100E6000E99A08951F920F920FB60F9211242F93B3
:100E70003F934F935F936F937F938F939F93AF9322
:100E8000BF93EF93FF9380912A0290912B02892BBD
:100E900029F0E0912A02F0912B020995FF91EF9140
:100EA000BF91AF919F918F917F916F915F914F9182
:100EB0003F912F910F900FBE0F901F9018951F928A
:100EC0000F920FB60F9211242F933F934F935F937E
:100ED0006F937F938F939F93AF93BF93EF93FF9302
:100EE00080912C0290912D02892B29F0E0912C0207
:100EF000F0912D020995FF91EF91BF91AF919F91D4
:100F00008F917F916F915F914F913F912F910F90B2
:100F10000FBE0F901F9018951F920F920FB60F9251
:100F200011242F933F938F939F93AF93BF938091FF
:100F30002F0290913002A0913102B0913202309193
:100F40002E0223E0230F2D3720F40196A11DB11DA1
:100F500005C026E8230F0296A11DB11D20932E0285
:100F600080932F0290933002A0933102B09332020B
:100F70008091330290913402A0913502B0913602F3
:100F80000196A11DB11D8093330290933402A0936A
:100F90003502B0933602BF91AF919F918F913F91EF
:100FA0002F910F900FBE0F901F9018952FB7F894A8
:100FB00060912F0270913002809131029091320243
:100FC0002FBF08953FB7F894809133029091340277
:100FD000A0913502B091360226B5A89B05C02F3FDF
:100FE00019F00196A11DB11D3FBF6627782F892FEB
:100FF0009A2F620F711D811D911D42E0660F771FB0
:10100000881F991F4A95D1F70895CF92DF92EF92EA
:10101000FF92CF93DF936B017C010E94E207EB010B
:10102000C114D104E104F10479F00E94E2076C1BC1
:101030007D0B683E7340A0F381E0C81AD108E10837
:10104000F108C851DC4FECCFDF91CF91FF90EF90CA
:10105000DF90CF900895789484B5826084BD84B584
:10106000816084BD85B5826085BD85B5816085BDA3
:10107000EEE6F0E0808181608083E1E8F0E01082BC
:10108000808182608083808181608083E0E8F0E0FD
:10109000808181608083E1EBF0E0808184608083E7
:1010A000E0EBF0E0808181608083EAE7F0E080811E
:1010B000846080838081826080838081816080837E
:1010C0008081806880831092C10008958E3008F07E
:1010D0008E5087702091020190E4299F9001112485
:1010E000822B80937C0080917A00806480937A00C8
:1010F00080917A0086FDFCCF809178002091790064
:1011000090E0922B08951F93CF93DF93182FEB015C
:1011100061E00E940B09209711F460E004C0CF3F0A
:10112000D10539F461E0812FDF91CF911F910C94AB
:101130004409E12FF0E0EC54FF4FE491E330F9F083
:1011400048F4E130B9F0E230A1F584B5806284BDA5
:10115000C8BD34C0E630E9F0E73019F1E43049F5B4
:1011600080918000806280938000D0938B00C09338
:101170008A0024C084B5806884BDC7BD1FC080912B
:101180008000806880938000D0938900C09388009D
:1011900015C08091B00080688093B000C093B30008
:1011A0000DC08091B00080628093B000C093B40005
:1011B00005C0C038D1050CF0B5CFAFCFDF91CF91CE
:1011C0001F910895833081F028F4813099F08230A6
:1011D000A1F008958630A9F08730B9F08430D1F4B9
:1011E000809180008F7D03C0809180008F778093F5
:1011F0008000089584B58F7702C084B58F7D84BD4B
:1012000008958091B0008F7703C08091B0008F7DEA
:101210008093B0000895CF93DF9390E0FC01E853F2
:10122000FF4F2491FC01E452FF4F8491882349F140
:1012300090E0880F991FFC01E650FF4FA591B491F3
:1012400080519F4FFC01C591D4919FB7611108C097
:10125000F8948C91209582238C93888182230AC0F4
:10126000623051F4F8948C91322F309583238C9313
:101270008881822B888304C0F8948C91822B8C9374
:101280009FBFDF91CF9108950F931F93CF93DF936B
:101290001F92CDB7DEB7282F30E0F901EC54FF4F95
:1012A0008491F901E853FF4F1491F901E452FF4F83
:1012B00004910023C9F0882321F069830E94E20889
:1012C0006981E02FF0E0EE0FFF1FE051FF4FA59185
:1012D000B4919FB7F8948C91611103C0109581234C
:1012E00001C0812B8C939FBF0F90DF91CF911F91F5
:1012F0000F910895CF92DF92EF92FF920F931F9379
:10130000CF93DF936C017A01EB01E60EF71E00E04C
:1013100010E0CE15DF0561F06991D601ED91FC91E9
:101320000190F081E02DC6010995080F191FF1CF3A
:10133000C801DF91CF911F910F91FF90EF90DF9047
:10134000CF9008956115710581F0DB010D900020AB
:10135000E9F7AD0141505109461B570BDC01ED91F6
:10136000FC910280F381E02D099480E090E00895E3
:10137000DC01ED91FC910190F081E02D09940F9337
:101380001F93CF93DF93EC016DE00E94B8098C01AD
:101390006AE0CE010E94B809800F911FDF91CF91C2
:1013A0001F910F9108958F929F92AF92BF92CF920B
:1013B000DF92EF92FF920F931F93CF93DF93CDB7FE
:1013C000DEB7A1970FB6F894DEBF0FBECDBF7C018C
:1013D000C42EE52FCB01D22E19A221E02D1510F03D
:1013E0002AE0D22E8E010F5D1F4F8D2C912CA12C47
:1013F000B12C6C2D7E2FA50194010E9474158C2DAB
:10140000D29E80191124015011098A3014F4805D94
:1014100001C0895CF8018083211531054105510522
:1014200021F0C22EE32FCA01E4CFB801C7010E9408
:10143000A209A1960FB6F894DEBF0FBECDBFDF9113
:10144000CF911F910F91FF90EF90DF90CF90BF90C1
:10145000AF909F908F900895CF92DF92EF92FF927E
:101460000F931F93CF93DF93EC016A017B0121154A
:10147000310579F4E881F9810190F081E02D642F44
:10148000DF91CF911F910F91FF90EF90DF90CF9060
:1014900009942A303105E9F477FF1AC06DE20E9401
:1014A000B8098C0144275527BA014C195D096E090A
:1014B0007F092AE0CE010E94D309800F911FDF919E
:1014C000CF911F910F91FF90EF90DF90CF900895F3
:1014D0002AE0B701A601CE01DF91CF911F910F91B4
:1014E000FF90EF90DF90CF900C94D3094F925F92D2
:1014F0006F927F928F929F92AF92BF92CF92DF9224
:10150000EF92FF920F931F93CF93DF93EC016A0149
:101510007B01B22E9A01AB01C701B6010E944A15A8
:10152000882319F06BEF71E027C026013701E8949A
:1015300077F82FEF3FEF4FE75FE7C301B2010E945B
:101540004A1581110DC02FEF3FEF4FE75FE7C30151
:10155000B2010E94E11218161CF46FEF71E00CC08A
:101560002FEF3FEF4FE75FE4C701B6010E949114F0
:101570001816ACF463E072E0CE01DF91CF911F91B9
:101580000F91FF90EF90DF90CF90BF90AF909F9022
:101590008F907F906F905F904F900C94A2092FEFE7
:1015A0003FEF4FE75FECC701B6010E94E11287FDF4
:1015B000E1CF20E030E0A901C701B6010E94E112AD
:1015C00087FF0AC06DE2CE010E94B8098C01F7FACC
:1015D000F094F7F8F09402C000E010E0A12C60E075
:1015E00070E080E09FE3AB1441F020E030E040E2A7
:1015F00051E40E94E812A394F6CF9B01AC01C7010D
:10160000B6010E941B126B017C010E9455132B0135
:101610003C010E9481139B01AC01C701B6010E94ED
:101620001A126B017C012AE0B301A201CE010E94D3
:10163000D309080F191FBB2039F067E072E0CE0113
:101640000E94A209080F191F7B2C772041F120E08E
:1016500030E040E251E4C701B6010E949C146B01E6
:101660007C010E9450134B01AA2497FCA094BA2C31
:101670002AE030E0B501A401CE010E942C0A080F37
:10168000191FC501B4010E9483139B01AC01C7015E
:10169000B6010E941A126B017C017A94D6CFC80160
:1016A000DF91CF911F910F91FF90EF90DF90CF903E
:1016B000BF90AF909F908F907F906F905F904F9072
:1016C00008950F931F93CF93DF93EC010E94760A46
:1016D0008C01CE010E94BF09800F911FDF91CF9135
:1016E0001F910F9108950F931F93CF93DF93EC01F8
:1016F0000E94D607688779878A879B87E881F98166
:101700000680F781E02DCE01099597FF15C00E9454
:10171000D607088519852A853B85601B710B820BCE
:10172000930B0C811D812E813F8160177107820709
:10173000930720F38FEF9FEFDF91CF911F910F91D0
:1017400008950F931F93CF93DF93EC010E94D60768
:10175000688779878A879B87E881F9810084F1858A
:10176000E02DCE01099597FF15C00E94D607088588
:1017700019852A853B85601B710B820B930B0C81AD
:101780001D812E813F81601771078207930720F327
:101790008FEF9FEFDF91CF911F910F910895CF931E
:1017A000DF93EC01CE010E94A10B97FD11C08D3299
:1017B000910571F09C01205331092A30310540F028
:1017C000E881F9810680F781E02DCE010995EACF05
:1017D000DF91CF910895CF92DF92FF920F931F93E5
:1017E000CF93DF9300D000D0CDB7DEB76C01062FCA
:1017F0000E94CF0BFC0197FD4BC020E030E0A90117
:10180000F12C112707FD1095E017F107E9F0ED32F3
:10181000F105C1F0CF01C0970A97B0F4AAE0B0E09B
:101820000E9496159B01AC01CF01AA2797FDA095B8
:10183000BA2F280F391F4A1F5B1F20533109410956
:10184000510902C0FF24F394D601ED91FC9106806A
:10185000F781E02DC60129833A834B835C83099588
:10186000C6010E94A10BFC01C09729813A814B81DE
:101870005C810A9748F2E017F10731F2FF2061F02E
:1018800066277727CB01621B730B840B950B06C071
:1018900060E070E0CB0102C0CA01B9010F900F9067
:1018A0000F900F90DF91CF911F910F91FF90DF90DC
:1018B000CF90089561E00C94EB0B7F928F929F92F2
:1018C000AF92BF92CF92DF92EF92FF920F931F934E
:1018D000CF93DF93EC01762E0E94CF0BE82F87FD8C
:1018E0006AC0812C912C80E8A82E8FE3B82EC12CE1
:1018F000D12C760110E000E0E71579F1ED3251F1DD
:10190000EE3251F180ED8E0F8A3038F5AAE0B0E06A
:10191000A70196010E9496156B017C014E2F552759
:1019200047FD5095652F752FC40ED51EE61EF71E78
:1019300080E3C81AD108E108F108112371F02DECF9
:101940003CEC4CEC5DE3C501B4010E949C144B01DE
:101950005C0102C001E001C011E0E881F98106806C
:10196000F781E02DCE010995CE010E94A10BE82F51
:1019700090ED980F9A3008F4BFCF8E3209F4BCCFA7
:10198000871509F4B9CF002341F0F094E094D09486
:10199000C094C11CD11CE11CF11CC701B60111236C
:1019A00039F00E948313A50194010E949C1406C083
:1019B0000E94831303C060E070E0CB01DF91CF9100
:1019C0001F910F91FF90EF90DF90CF90BF90AF905D
:1019D0009F908F907F90089561E00C945D0CEF9242
:1019E000FF920F931F93CF93DF93EC018B01E42EB3
:1019F00064E971E00E94850DC8010E94730BFF2409
:101A0000E7FCF09497FD0BC08E159F0541F0682F01
:101A1000CE010E94C80DC8010E94730BF3CFCE0106
:101A2000DF91CF911F910F91FF90EF900895FC01EE
:101A3000808191810C946F11CF93DF93EC018881A9
:101A40009981009711F00E946F11198218821D82EE
:101A50001C821B821A82DF91CF9108950F931F93EE
:101A6000CF93DF93EC018B016F5F7F4F888199816A
:101A70000E94EE0F009731F0998388831B830A83BD
:101A800081E001C080E0DF91CF911F910F91089517
:101A9000CF93DF93EC0188819981892B29F08A818A
:101AA0009B818617970760F4CE010E942E0D882334
:101AB00041F08C819D81892B19F4E881F981108294
:101AC00081E0DF91CF910895EF92FF920F931F93E2
:101AD000CF93DF93EC017B018A01BA010E94480D8C
:101AE000811104C0CE010E941C0D07C01D830C8310
:101AF000B701888199810E941312CE01DF91CF91A5
:101B00001F910F91FF90EF900895FC0111821082B8
:101B1000138212821582148216826115710559F0A2
:101B2000FB0101900020E9F7AF0141505109461B2C
:101B3000570B0C94640D0895EF92FF920F931F932F
:101B4000CF93DF93EC017B010C811D816115710541
:101B500011F480E016C04115510591F0040F151FD6
:101B6000B8010E94480D8823A1F3288139818C8116
:101B70009D81B701820F931F0E9413121D830C8356
:101B800081E0DF91CF911F910F91FF90EF90089529
:101B9000CF93DF9300D0CDB7DEB769831A8241E0DF
:101BA00050E0BE016F5F7F4F0E949C0D0F900F9021
:101BB000DF91CF910895FC0124813581232B31F4ED
:101BC00021E061157105A1F0FB0108C0FC018081D5
:101BD00091816115710531F421E0FC018081882338
:101BE00039F005C00E940A1221E0892B09F020E09B
:101BF000822F08950E942B080E94BF04C3EDDEE0EF
:101C00000E9428052097E1F30E94D30EF9CFFC0132
:101C100024853585F901E05CFF4F80819181329602
:101C200020813181821B930B8F7399270895FC01CA
:101C300084859585FC01E05CFF4F4081518132969F
:101C4000208131814217530741F00190F081E02D4E
:101C5000E80FF91F808190E008958FEF9FEF0895BE
:101C6000FC0184859585FC01E05CFF4F408151813A
:101C70003296208131814217530779F0A081B181DA
:101C8000A80FB91F8C91208131812F5F3F4F2F7397
:101C900033273183208390E008958FEF9FEF0895DD
:101CA000FC0181A1882329F0A489B5898C9186FF44
:101CB000FBCF11A20895CF93DF93FC0126853785D2
:101CC000D901A05CBF4F8D919C91119701968F73A4
:101CD0009927E901CE5BDF4F488159818417950729
:101CE000D9F30D90BC91A02DA20FB31F6C93A685C4
:101CF000B785A05CBF4F11969C938E93A689B78938
:101D00002C9181E090E0078C02C0880F991F0A9403
:101D1000E2F7282B2C9381E081A30488F589E02D3C
:101D200080818064808381E090E0DF91CF9108958D
:101D300008951F920F920FB60F9211242F933F9385
:101D40004F938F939F93EF93FF938091C00082FDF9
:101D50001CC04091C6008091DD029091DE02019688
:101D60008F7399272091DF023091E0028217930749
:101D700071F0E091DD02F091DE02E356FD4F408309
:101D80009093DE028093DD0202C08091C600FF9135
:101D9000EF919F918F914F913F912F910F900FBE97
:101DA0000F901F90189587E392E00E94070E892BF1
:101DB00011F00C94980E08951F920F920FB60F9287
:101DC00011242F933F938F939F93EF93FF93209131
:101DD000990230919A0280919B0290919C0228175F
:101DE000390731F48091C1008F7D8093C10014C008
:101DF000E0919B02F0919C02E75AFD4F2081809177
:101E00009B0290919C0201968F73992790939C025C
:101E100080939B022093C600FF91EF919F918F9139
:101E20003F912F910F900FBE0F901F901895CF925A
:101E3000DF92EF92FF92CF93DF93EC016A017B0177
:101E4000411581EE580761057105F9F0EC89FD89AE
:101E500081E090E008A002C0880F991F0A94E2F781
:101E6000808360E079E08DE390E0A70196010E9415
:101E700074152150310941095109569547953795F7
:101E80002795211580E1380798F0EC89FD891082AB
:101E900060E874E88EE190E0A70196010E94741555
:101EA0002150310941095109569547953795279594
:101EB000E889F9893083EA89FB89208319A2EE89B0
:101EC000FF89408181E090E09C010C8C02C0220FD0
:101ED000331F0A94E2F7422B4083EE89FF89408149
:101EE0009C010D8C02C0220F331F0A94E2F7422B93
:101EF0004083EE89FF8940819C010E8C02C0220F35
:101F0000331F0A94E2F7422B4083EE89FF89208138
:101F10000F8C02C0880F991F0A94E2F780958223E4
:101F20008083DF91CF91FF90EF90DF90CF90089565
:101F300010923A021092390288EE93E0A0E0B0E0ED
:101F400080933B0290933C02A0933D02B0933E02EB
:101F50008DE092E090933802809337028DE992E011
:101F6000909344028093430289E592E09093460265
:101F70008093450285EC90E090934802809347025D
:101F800084EC90E090934A028093490280EC90E0C8
:101F900090934C0280934B0281EC90E090934E0220
:101FA00080934D0282EC90E09093500280934F0218
:101FB00086EC90E0909352028093510284E08093EB
:101FC000530283E08093540287E08093550285E0BA
:101FD0008093560281E08093570208956F927F921A
:101FE0008F929F92AF92BF92CF92DF92EF92FF9229
:101FF0000F931F93CF93DF93EC01CB01209781F4D4
:10200000DF91CF911F910F91FF90EF90DF90CF90D4
:10201000BF90AF909F908F907F906F900C94D7104F
:10202000FE01E60FF71F9E0122503109E217F30768
:1020300008F4ACC0D9010D911C9111970617170730
:10204000B8F00530110508F49FC0A80144505109AB
:102050004617570708F498C002501109061B170BC2
:10206000019311936D937C93CF010E946F118CC0EB
:102070005B01A01AB10A4E01800E911EA091E302ED
:10208000B091E402612C712C60E070E0109709F4CB
:1020900049C0A815B905C9F5ED90FC9011976701E5
:1020A00042E0C40ED11CCA14DB0478F147018A183F
:1020B0009B08640142E0C40ED11C1296BC9012979A
:1020C0001396AC91B5E0CB16D10440F0B282A38355
:1020D00091828082D9018D939C9309C00E5F1F4F1E
:1020E0000E0D1F1DF90111830083EB2DFA2F6115D1
:1020F000710531F0DB011396FC93EE93129744C007
:10210000F093E402E093E3023FC06D917C9111975C
:102110006616770608F43B01BD0112960D90BC913E
:10212000A02DB4CF6091E1027091E20268157905AB
:10213000E9F468167906D0F4409103015091040146
:102140004115510541F44DB75EB76091070170919B
:102150000801461B570BE417F507C0F4F093E202A1
:10216000E093E102F901918380830EC00E94D710B1
:102170007C01009759F0A801BE010E940112CE0116
:102180000E946F11C70104C0CE0102C080E090E040
:10219000DF91CF911F910F91FF90EF90DF90CF9043
:1021A000BF90AF909F908F907F906F900895CF9346
:1021B000DF938230910510F482E090E0E091E30239
:1021C000F091E40220E030E0A0E0B0E0309739F197
:1021D0004081518148175907B8F04817590771F4E1
:1021E00082819381109729F013969C938E93129776
:1021F0002CC09093E4028093E30227C0211531059F
:1022000031F04217530718F0A901DB0101C0EF01BB
:102210009A01BD01DF010280F381E02DD7CF2115A6
:102220003105F9F0281B390B2430310580F48A81FF
:102230009B816115710521F0FB019383828304C0AA
:102240009093E4028093E302FE01329644C0FE01C3
:10225000E20FF31F81939193225031093983288330
:102260003AC02091E1023091E202232B41F4209107
:102270000501309106013093E2022093E1022091A2
:102280000301309104012115310541F42DB73EB70A
:102290004091070150910801241B350BE091E102A8
:1022A000F091E202E217F307A0F42E1B3F0B281770
:1022B000390778F0AC014E5F5F4F2417350748F0BF
:1022C0004E0F5F1F5093E2024093E102819391937E
:1022D00002C0E0E0F0E0CF01DF91CF910895CF930D
:1022E000DF93009709F487C0FC01329713821282B2
:1022F000C091E302D091E402209781F420813181E2
:10230000280F391F8091E1029091E2028217930712
:1023100079F5F093E202E093E1026DC0DE0120E086
:1023200030E0AE17BF0750F412964D915C911397B1
:102330009D014115510509F1DA01F3CFB383A28361
:1023400040815181840F951F8A179B0771F48D91ED
:102350009C911197840F951F02969183808312960A
:102360008D919C911397938382832115310529F4D4
:10237000F093E402E093E3023EC0D9011396FC938C
:10238000EE9312974D915D91A40FB51FEA17FB07CD
:1023900079F480819181840F951F0296D90111965D
:1023A0009C938E938281938113969C938E93129724
:1023B000E0E0F0E08A819B81009719F0FE01EC01DA
:1023C000F9CFCE01029628813981820F931F209187
:1023D000E1023091E2022817390769F4309729F4B5
:1023E0001092E4021092E30202C013821282D09390
:1023F000E202C093E102DF91CF910895F8940C942A
:10240000B615FB01DC0102C001900D924150504015
:10241000D8F70895FB01DC018D910190801901101E
:10242000D9F3990B0895FB01DC0101900D92002076
:10243000E1F708955058BB27AA270ED027C2F0D144
:1024400030F0F5D120F031F49F3F11F41EF4C0C1FB
:102450000EF4E095E7FBB6C1E92F3AD280F3BA1744
:10246000620773078407950718F071F49EF552C24E
:102470000EF4E0950B2EBA2FA02D0B01B90190019F
:102480000C01CA01A0011124FF27591B99F0593FE3
:1024900050F4503E68F11A16F040A22F232F342F2B
:1024A0004427585FF3CF469537952795A795F04079
:1024B0005395C9F77EF41F16BA0B620B730B840B8E
:1024C000BAF09150A1F0FF0FBB1F661F771F881F46
:1024D000C2F70EC0BA0F621F731F841F48F487959E
:1024E00077956795B795F7959E3F08F0B3CF93958D
:1024F000880F08F09927EE0F97958795089590D14A
:1025000058F080E891E009F49EEF91D128F040E87E
:1025100051E059F45EEF09C05BC1FCC1E92FE078DE
:10252000D7D168F3092E052AC1F3261737074807C4
:10253000590738F00E2E07F8E02569F0E025E06431
:102540000AC0EF6307F8009407FADB01B9019D01A7
:10255000DC01CA01AD01EF934AD098D10AD05F9156
:10256000552331F02BED3FE049E450FD49EC63CFBA
:102570000895DF93DD27B92FBF7740E85FE3161694
:10258000170648075B0710F4D92FCFD19F938F937D
:102590007F936F937CD2E8E6F0E01DD177D12F9145
:1025A0003F914F915F91D4D1DD2349F09058A2EA39
:1025B0002AED3FE049EC5FE3D0785D274DDFDF9106
:1025C00065C1DCD008F481E0089539D1E3956FC18D
:1025D0000CD05CC12CD140F023D130F021F45F3F0E
:1025E00019F0F0C0511197C1F3C072D198F399233B
:1025F000C9F35523B1F3951B550BBB27AA276217C7
:102600007307840738F09F5F5F4F220F331F441F0B
:10261000AA1FA9F333D00E2E3AF0E0E830D0915043
:102620005040E695001CCAF729D0FE2F27D0660F30
:10263000771F881FBB1F261737074807AB07B0E86F
:1026400009F0BB0B802DBF01FF2793585F4F2AF085
:102650009E3F510568F0B6C05EC15F3FECF3983E07
:10266000DCF3869577956795B795F7959F5FC9F7E2
:10267000880F911D9695879597F90895E1E0660F6B
:10268000771F881FBB1F621773078407BA0720F0E4
:10269000621B730B840BBA0BEE1F88F7E09508954D
:1026A00004D06894B11137C108951AD188F09F57AA
:1026B00090F0B92F9927B751A0F0D1F0660F771F8E
:1026C000881F991F1AF0BA95C9F712C0B13081F06E
:1026D00021D1B1E008951EC1672F782F8827B85FF8
:1026E00039F0B93FCCF3869577956795B395D9F7CF
:1026F0003EF490958095709561957F4F8F4F9F4FD9
:102700000895E89409C097FB3EF4909580957095E4
:1027100061957F4F8F4F9F4F9923A9F0F92F96E92D
:10272000BB279395F695879577956795B795F111A2
:10273000F8CFFAF4BB0F11F460FF1BC06F5F7F4F3F
:102740008F4F9F4F16C0882311F096E911C0772351
:1027500021F09EE8872F762F05C0662371F096E85A
:10276000862F70E060E02AF09A95660F771F881F29
:10277000DAF7880F9695879597F90895990F0008CD
:10278000550FAA0BE0E8FEEF16161706E807F90743
:10279000C0F012161306E407F50798F0621B730BDE
:1027A000840B950B39F40A2661F0232B242B252B5F
:1027B00021F408950A2609F4A140A6958FEF811D02
:1027C000811D089597F99F6780E870E060E00895A3
:1027D0009FEF80EC0895DF93CF931F930F93FF92A9
:1027E000EF92DF927B018C01689405C0DA2EEF0135
:1027F000AFD0FE01E894A591259135914591559171
:10280000AEF3EF0129DEFE019701A801DA9479F712
:10281000DF90EF90FF900F911F91CF91DF9108957E
:1028200000240A94161617061806090608950024AF
:102830000A9412161306140605060895C9CF50D03F
:10284000E8F3E894E0E0BB279F57F0F02AED3FE083
:1028500049EC06C0EE0FBB0F661F771F881F28F0DC
:10286000B23A62077307840728F0B25A620B730BFF
:10287000840BE3959A9572F7803830F49A95BB0FE4
:10288000661F771F881FD2F790480AC1092E03944C
:10289000000C11F4882352F0BB0F40F4BF2B11F44D
:1028A00060FF04C06F5F7F4F8F4F9F4F0895EF937E
:1028B000E0FF06C0A2EA2AED3FE049EC5FEBCCDD89
:1028C000E5DF0F90039401FC9058E5E9F0E0FBC0D0
:1028D00057FD9058440F551F59F05F3F71F04795D1
:1028E000880F97FB991F61F09F3F79F087950895B6
:1028F000121613061406551FF2CF4695F1DF08C0D5
:10290000161617061806991FF1CF869571056105F1
:1029100008940895E894BB2766277727CB0197F999
:1029200008952CDF08F48FEF08959B01AC0160E05F
:1029300070E080E89FE34CCE0BD0A8CF71DF28F089
:1029400076DF18F0952309F03DCF42CF1124E3CF75
:10295000BFDFA0F3959FD1F3950F50E0551F629F05
:10296000F001729FBB27F00DB11D639FAA27F00DE8
:10297000B11DAA1F649F6627B00DA11D661F829F0F
:102980002227B00DA11D621F739FB00DA11D621FF4
:10299000839FA00D611D221F749F3327A00D611D11
:1029A000231F849F600D211D822F762F6A2F1124F3
:1029B0009F5750408AF0E1F088234AF0EE0FFF1F46
:1029C000BB1F661F771F881F91505040A9F79E3F7D
:1029D000510570F0F7CE9FCF5F3FECF3983EDCF3EC
:1029E000869577956795B795F795E7959F5FC1F7BA
:1029F000FE2B880F911D9695879597F908959F93C3
:102A00001EDF0F9007FCEE5F52CF11F40EF4E0CE04
:102A100045C066DFD0F39923D9F3CEF39F57550B0A
:102A200087FF4AD00024A0E640EA900180585695DE
:102A3000979528F4805C660F771F881F20F0261773
:102A40003707480730F4621B730B840B20293129A8
:102A50004A2BA69517940794202531254A2758F725
:102A6000660F771F881F20F026173707480730F4B6
:102A7000620B730B840B200D311D411DA09581F756
:102A8000B901842F9158880F9695879508959B01D9
:102A9000AC0152CF73DE880B990B08959F3F31F044
:102AA000915020F4879577956795B795880F911D7C
:102AB0009695879597F9089591505040660F771F26
:102AC000881FD2F708959F938F937F936F93FF93FF
:102AD000EF939B01AC0130DFEF91FF917CDE2F91F2
:102AE0003F914F915F9128CFA1E21A2EAA1BBB1BE9
:102AF000FD010DC0AA1FBB1FEE1FFF1FA217B307CA
:102B0000E407F50720F0A21BB30BE40BF50B661FDF
:102B1000771F881F991F1A9469F7609570958095A3
:102B200090959B01AC01BD01CF0108950E94A715AE
:102B3000A59F900DB49F900DA49F800D911D112411
:102B40000895EE0FFF1F0590F491E02D0994A29FC8
:102B5000B001B39FC001A39F700D811D1124911D71
:102B6000B29F700D811D1124911D0895F894FFCF1F
:102B70000101010000E50280003F6261747465722A
:102B800079003F6261747465727920002173746505
:102B90006572002168616C74200021726F6E2000E4
:102BA00021626F6E200021676F6E200021726F66B8
:102BB00066200021676F6666200021626F666620CE
:102BC000002172666F7277200021726261636B2050
:102BD00000216C666F72772000216C6261636B204C
:102BE0000021736574616E676C65200021676F74E6
:102BF0006F003F78003F7820003F7920003F7468E5
:102C0000657461200021737465657220002168611C
:102C10006C740021726F6E0021626F6E0021676F0D
:102C20006E0021726F66660021676F666600216222
:102C30006F6666002172666F72770021726261634F
:102C40006B00216C666F727700216C6261636B00B0
:102C500021736574616E676C650021676F746F2006
:102C6000003F79003F7468657461006E616E0069B1
:102C70006E66006F7666002E00000000005B0E7A24
:0A2C800009070E300E170E500E006B
:00000001FF
