:100000000C9483000C941A060C9447060C94AB00D5
:100010000C94AB000C94AB000C94AB000C94AB00B4
:100020000C94AB000C94AB000C94AB000C94AB00A4
:100030000C94AB000C94AB000C94AB000C94AB0094
:100040000C9474060C94AB000C94810D0C94C40DAC
:100050000C94AB000C94AB000C94AB000C94AB0074
:100060000C94AB000C94AB00084AD73B3BCE016E1E
:1000700084BCBFFDC12F3D6C74319ABD56833DDAFF
:100080003D00C77F11BED9E4BB4C3E916BAAAABE0E
:10009000000000803F05A84CCDB2D44EB93836A937
:1000A000020C50B9918688083CA6AAAA2ABE000074
:1000B00000803F000000000700020100000304066A
:1000C0000000000000000000010204081020408031
:1000D0000102040810200102040810200404040492
:1000E00004040404020202020202030303030303E2
:1000F00000000000250028002B0000000000240064
:1001000027002A00800E11241FBECFEFD8E0DEBFEB
:10011000CDBF12E0A0E0B1E0EEEAF8E202C0059047
:100120000D92AC30B107D9F722E0ACE0B2E001C0EB
:100130001D92A73DB207E1F711E0C6E0D1E004C08F
:100140002297FE010E944214C430D107C9F70E94D1
:10015000E20C0C94E6100C940000CF92DF92EF9228
:10016000FF92CF93DF9300D000D0CDB7DEB76B0105
:100170007C010E94CD119B01AC01C701B60129830E
:100180003A834B835C830E94E71329813A814B8138
:100190005C810F900F900F900F90DF91CF91FF90A7
:1001A000EF90DF90CF900C94761160E070E085E0E6
:1001B0000E946B0760E070E08AE00E946B0760E0DD
:1001C00070E086E00E946B0760E070E089E00C94CC
:1001D0006B074F925F926F927F928F929F92AF9236
:1001E000BF92CF92DF92EF92FF920F931F93CF9324
:1001F000DF9369017A019B01AC010E9403114B015D
:100200005C0120E030E040E951E4C701B6010E9402
:1002100084132B013C019B01AC01C501B4010E9478
:10022000021120E030E040EE50E40E94D01120E0C6
:1002300030E04FE753E40E94841320E030E040E2D6
:1002400051E40E94D0110E9438126B017C01EB0135
:10025000A3019201C501B4010E94031120E030E026
:1002600040EE50E40E94D01120E030E04FE753E42C
:100270000E94841320E030E040E251E40E94D0115B
:100280000E9438124B015C018B0181E018141904A3
:100290000CF080E08093010181E01C161D060CF03B
:1002A00080E0809300010E94D500B40117FF02C0D6
:1002B00060E070E085E00E946B07101611062CF0DC
:1002C000662777276819790902C060E070E086E048
:1002D0000E946B07B601D7FF02C060E070E08AE0C1
:1002E0000E946B071C161D062CF0662777276C19D9
:1002F0007D0902C060E070E089E0DF91CF911F913D
:100300000F91FF90EF90DF90CF90BF90AF909F90B4
:100310008F907F906F905F904F900C946B072F920F
:100320003F924F925F926F927F928F929F92AF9285
:10033000BF92CF92DF92EF92FF920F931F93CF93D2
:10034000DF93CDB7DEB728970FB6F894DEBF0FBEA8
:10035000CDBF4B015C0120911402309115024091F8
:100360001602509117020E9402110E94AD0069838B
:100370007A831C01C12CD12C760169817A81C1015B
:100380000E94AD002B013C0120E030E0A9010E9459
:10039000791318160CF07EC02EEA37E441EE5DE3C7
:1003A000C301B2010E94791387FD7FC0209114021E
:1003B000309115024091160250911702C501B40107
:1003C0000E9402110E94AD00162F78878F83092F9B
:1003D0002DEC3CEC4CEC5DE30E9484132B013C01C2
:1003E0002DEC3CEC4CEC5DE3C701B6010E9484139C
:1003F0009B01AC01C301B2010E9403116B837C839A
:100400008D839E8329813A81A101612F78858F8117
:10041000902F0E9402110E94AD002B013C012AE0A6
:1004200037ED43E25CE3612F78858F81902F0E9446
:1004300084139B01AC01C701B6010E9403116B013B
:100440007C012DEC3CEC4CEC5DE3C301B2010E945D
:1004500084132AE037ED43E25CE30E94D0119B0154
:10046000AC016B817C818D819E810E9403119B0177
:10047000AC0160E070E0CB010E94E9006AE070E04E
:1004800080E090E00E94ED06198388858A832F80A2
:10049000302E73CF2EEA37E441EE5DEBC301B2019B
:1004A0000E94C91118160CF081CF28960FB6F89447
:1004B000DEBF0FBECDBFDF91CF911F910F91FF9097
:1004C000EF90DF90CF90BF90AF909F908F907F90F4
:1004D0006F905F904F903F902F900C94D5008F922B
:1004E0009F92AF92BF92CF92DF92EF92FF92F894D9
:1004F000609118027091190280910101882331F0F6
:100500008091180290911902019605C080911802FD
:10051000909119020197909319028093180280918B
:10052000180290911902681B790B882777FD809536
:10053000982F0E946B122FE936E244E95FE30E9494
:1005400084136B017C018090140290901502A0909E
:100550001602B090170220E030E040E951E40E941A
:10056000D0119B01AC01C501B4010E94021160933E
:1005700014027093150280931602909317028090D4
:10058000100290901102A0901202B090130260919C
:1005900014027091150280911602909117020E9428
:1005A000CD11A70196010E9484139B01AC01C501E6
:1005B000B4010E94031160931002709311028093A2
:1005C00012029093130280900C0290900D02A09062
:1005D0000E02B0900F02609114027091150280918A
:1005E0001602909117020E94E713A70196010E943C
:1005F00084139B01AC01C501B4010E9403116093F7
:100600000C0270930D0280930E0290930F02789467
:10061000FF90EF90DF90CF90BF90AF909F908F9022
:1006200008958F929F92AF92BF92CF92DF92EF92F6
:10063000FF92F89460911A0270911B028091000160
:10064000882331F080911A0290911B02019605C017
:1006500080911A0290911B02019790931B02809344
:100660001A0280911A0290911B02681B790B88274D
:1006700077FD8095982F0E946B122FE936E244E9AE
:100680005FE30E9484136B017C01809014029090C0
:100690001502A0901602B090170220E030E040E969
:1006A00051E40E94D0119B01AC01C501B4010E942C
:1006B00002116093140270931502809316029093B6
:1006C00017028090100290901102A0901202B09038
:1006D000130260911402709115028091160290919C
:1006E00017020E94CD11A70196010E9484139B015D
:1006F000AC01C501B4010E94031160931002709314
:100700001102809312029093130280900C02909039
:100710000D02A0900E02B0900F0260911402709131
:10072000150280911602909117020E94E713A7010B
:1007300096010E9484139B01AC01C501B4010E9483
:10074000031160930C0270930D0280930E0290933C
:100750000F027894FF90EF90DF90CF90BF90AF9012
:100760009F908F90089580E10E944E07BC018827DA
:1007700077FD8095982F0E946B1220E030E040EAD0
:100780005CE30E948413089540E052EC61E070E065
:1007900089E292E00E94FF0D61E085E00E94F3078C
:1007A00061E086E00E94F30761E089E00E94F307C0
:1007B00061E08AE00E94F30761E08BE00E94F307AA
:1007C00061E08CE00E94F30761E08DE00E94F30796
:1007D00041E050E06FE672E081E00E94FA0541E0FE
:1007E00050E061E173E080E00E94FA05789408959A
:1007F000CF93DF9300D000D0CDB7DEB789E292E08F
:100800000E94FF0C809729F489E292E00E94180D63
:10081000F5CF89E292E00E94FF0C8D9729F020E04D
:1008200030E040E85FE304C020E030E040E85FEB08
:1008300089E292E029833A834B835C830E94D40B44
:1008400029813A814B815C810E9484130F900F9023
:100850000F900F90DF91CF910895CF92DF92EF929A
:10086000FF92CF93DF93CDB7DEB72E970FB6F894F4
:10087000DEBF0FBECDBF89E292E00E94EF0C892B54
:1008800009F4ABC140E269E272E0CE0108960E9431
:10089000D70B69E071E0CE0108960E94C30C81116C
:1008A00008C062E171E0CE0108960E94C30C882363
:1008B00031F10E94B303AB01BC0122E030E089E2D8
:1008C00092E00E94490A4AE069E272E0CE01019694
:1008D0000E94D70BCE0101960E94FF0B6CE771E0DE
:1008E000CE0108960E94C30C811132C16FE771E0FE
:1008F000CE0108960E94C30C81112AC13CC16FE849
:1009000071E0CE0108960E94C30C811108C06CE111
:1009100071E0CE0108960E94C30C882371F00E94FA
:10092000F8036B017C010E94F8039B01AC01505855
:10093000C701B6010E94E900C6CF67E971E0CE01A8
:1009400008960E94C30C811108C063E271E0CE01D9
:1009500008960E94C30C882319F00E94D500B3CFDB
:100960006DE971E0CE0108960E94C30C811108C0A8
:100970006AE271E0CE0108960E94C30C882311F050
:1009800061E031C062EA71E0CE0108960E94C30CBA
:1009900081112DC060E371E0CE0108960E94C30C66
:1009A000811125C067EA71E0CE0108960E94C30C50
:1009B000811120C066E371E0CE0108960E94C30C4D
:1009C000811118C06CEA71E0CE0108960E94C30C38
:1009D000811108C06CE371E0CE0108960E94C30C3F
:1009E000882359F060E08BE00E942C086CCF61E016
:1009F0008DE0FACF61E08CE0F7CF62EB71E0CE01E1
:100A000008960E94C30C811108C063E471E0CE0116
:100A100008960E94C30C882311F060E0ECCF68EBCD
:100A200071E0CE0108960E94C30C811108C06AE4EF
:100A300071E0CE0108960E94C30C882311F060E09B
:100A4000D7CF6EEB71E0CE0108960E94C30C8111E6
:100A500008C061E571E0CE0108960E94C30C8823AE
:100A600059F089E292E00E94420B8AE00E946B07F3
:100A700060E070E089E046C065EC71E0CE01089668
:100A80000E94C30C811108C069E571E0CE0108968F
:100A90000E94C30C882359F089E292E00E94420B25
:100AA00089E00E946B0760E070E08AE02BC06CEC8C
:100AB00071E0CE0108960E94C30C811119C061E655
:100AC00071E0CE0108960E94C30C811111C063ED44
:100AD00071E0CE0108960E94C30C811116C069E630
:100AE00071E0CE0108960E94C30C81110EC018C09F
:100AF00089E292E00E94420B85E00E946B0760E071
:100B000070E086E00E946B07DECE89E292E00E94F0
:100B1000420B86E00E946B0760E070E085E0F2CF58
:100B20006AED71E0CE0108960E94C30C811109C0E4
:100B300061E771E0CE0108960E94C30C882309F496
:100B4000C2CE89E292E00E94D40B0E948F01BBCEFC
:100B500040911002509111026091120270911302A3
:100B600022E030E089E292E00E94490ACE01089634
:100B70000E94FF0B32C064EE71E0CE0108960E9425
:100B8000C30C811108C063E871E0CE0108960E9491
:100B9000C30C882349F040910C0250910D026091E2
:100BA0000E0270910F02DCCF67EE71E0CE01089665
:100BB0000E94C30C811108C067E871E0CE0108965D
:100BC0000E94C30C882391F24091140250911502A7
:100BD0006091160270911702C3CF2E960FB6F8944B
:100BE000DEBF0FBECDBFDF91CF91FF90EF90DF90C2
:100BF000CF9008958230E8F4E82FF0E0EE0FFF1F69
:100C0000E45EFD4F71836083813041F08091690023
:100C10008C7F842B80936900E89A08958091690005
:100C2000440F551F440F551F837F842B8093690009
:100C3000E99A08951F920F920FB60F9211242F93E5
:100C40003F934F935F936F937F938F939F93AF9354
:100C5000BF93EF93FF9380911C0290911D02892B0B
:100C600029F0E0911C02F0911D020995FF91EF918E
:100C7000BF91AF919F918F917F916F915F914F91B4
:100C80003F912F910F900FBE0F901F9018951F92BC
:100C90000F920FB60F9211242F933F934F935F93B0
:100CA0006F937F938F939F93AF93BF93EF93FF9334
:100CB00080911E0290911F02892B29F0E0911E0263
:100CC000F0911F020995FF91EF91BF91AF919F9114
:100CD0008F917F916F915F914F913F912F910F90E5
:100CE0000FBE0F901F9018951F920F920FB60F9284
:100CF00011242F933F938F939F93AF93BF93809132
:100D0000210290912202A0912302B09124023091FD
:100D1000200223E0230F2D3720F40196A11DB11DE1
:100D200005C026E8230F0296A11DB11D20932002C5
:100D30008093210290932202A0932302B093240275
:100D40008091250290912602A0912702B09128025D
:100D50000196A11DB11D8093250290932602A093B8
:100D60002702B0932802BF91AF919F918F913F913D
:100D70002F910F900FBE0F901F9018952FB7F894DA
:100D800060912102709122028091230290912402AD
:100D90002FBF08953FB7F8948091250290912602C5
:100DA000A0912702B091280226B5A89B05C02F3F2D
:100DB00019F00196A11DB11D3FBF6627782F892F1D
:100DC0009A2F620F711D811D911D42E0660F771FE2
:100DD000881F991F4A95D1F70895CF92DF92EF921D
:100DE000FF92CF93DF936B017C010E94CA06EB0157
:100DF000C114D104E104F10479F00E94CA066C1B0D
:100E00007D0B683E7340A0F381E0C81AD108E10869
:100E1000F108C851DC4FECCFDF91CF91FF90EF90FC
:100E2000DF90CF900895789484B5826084BD84B5B6
:100E3000816084BD85B5826085BD85B5816085BDD5
:100E4000EEE6F0E0808181608083E1E8F0E01082EE
:100E5000808182608083808181608083E0E8F0E02F
:100E6000808181608083E1EBF0E080818460808319
:100E7000E0EBF0E0808181608083EAE7F0E0808150
:100E800084608083808182608083808181608083B0
:100E90008081806880831092C10008958E3008F0B0
:100EA0008E5087702091020190E4299F90011124B7
:100EB000822B80937C0080917A00806480937A00FA
:100EC00080917A0086FDFCCF809178002091790096
:100ED00090E0922B08951F93CF93DF93182FEB018F
:100EE00061E00E94F307209711F460E004C0CF3F57
:100EF000D10539F461E0812FDF91CF911F910C94DE
:100F00002C08E12FF0E0EC54FF4FE491E330F9F0CE
:100F100048F4E130B9F0E230A1F584B5806284BDD7
:100F2000C8BD34C0E630E9F0E73019F1E43049F5E6
:100F300080918000806280938000D0938B00C0936A
:100F40008A0024C084B5806884BDC7BD1FC080915D
:100F50008000806880938000D0938900C0938800CF
:100F600015C08091B00080688093B000C093B3003A
:100F70000DC08091B00080628093B000C093B40037
:100F800005C0C038D1050CF0B5CFAFCFDF91CF9100
:100F90001F910895833081F028F4813099F08230D8
:100FA000A1F008958630A9F08730B9F08430D1F4EB
:100FB000809180008F7D03C0809180008F77809327
:100FC0008000089584B58F7702C084B58F7D84BD7D
:100FD00008958091B0008F7703C08091B0008F7D1D
:100FE0008093B0000895CF93DF9390E0FC01E85325
:100FF000FF4F2491FC01E452FF4F8491882349F173
:1010000090E0880F991FFC01E650FF4FA591B49125
:1010100080519F4FFC01C591D4919FB7611108C0C9
:10102000F8948C91209582238C93888182230AC026
:10103000623051F4F8948C91322F309583238C9345
:101040008881822B888304C0F8948C91822B8C93A6
:101050009FBFDF91CF9108950F931F93CF93DF939D
:101060001F92CDB7DEB7282F30E0F901EC54FF4FC7
:101070008491F901E853FF4F1491F901E452FF4FB5
:1010800004910023C9F0882321F069830E94CA07D4
:101090006981E02FF0E0EE0FFF1FE051FF4FA591B7
:1010A000B4919FB7F8948C91611103C0109581237E
:1010B00001C0812B8C939FBF0F90DF91CF911F9127
:1010C0000F910895CF92DF92EF92FF920F931F93AB
:1010D000CF93DF936C017A01EB01E60EF71E00E07F
:1010E00010E0CE15DF0561F06991D601ED91FC911C
:1010F0000190F081E02DC6010995080F191FF1CF6D
:10110000C801DF91CF911F910F91FF90EF90DF9079
:10111000CF9008956115710581F0DB010D900020DD
:10112000E9F7AD0141505109461B570BDC01ED9128
:10113000FC910280F381E02D099480E090E0089515
:10114000DC01ED91FC910190F081E02D09940F9369
:101150001F93CF93DF93EC016DE00E94A0088C01F8
:101160006AE0CE010E94A008800F911FDF91CF910D
:101170001F910F9108958F929F92AF92BF92CF923D
:10118000DF92EF92FF920F931F93CF93DF93CDB730
:10119000DEB7A1970FB6F894DEBF0FBECDBF7C01BE
:1011A000C42EE52FCB01D22E19A221E02D1510F06F
:1011B0002AE0D22E8E010F5D1F4F8D2C912CA12C79
:1011C000B12C6C2D7E2FA50194010E9413148C2D3F
:1011D000D29E80191124015011098A3014F4805DC7
:1011E00001C0895CF8018083211531054105510555
:1011F00021F0C22EE32FCA01E4CFB801C7010E943B
:101200008A08A1960FB6F894DEBF0FBECDBFDF915E
:10121000CF911F910F91FF90EF90DF90CF90BF90F3
:10122000AF909F908F900895CF92DF92EF92FF92B0
:101230000F931F93CF93DF93EC016A017B0121157C
:10124000310579F4E881F9810190F081E02D642F76
:10125000DF91CF911F910F91FF90EF90DF90CF9092
:1012600009942A303105E9F477FF1AC06DE20E9433
:10127000A0088C0144275527BA014C195D096E0955
:101280007F092AE0CE010E94BB08800F911FDF91E9
:10129000CF911F910F91FF90EF90DF90CF90089525
:1012A0002AE0B701A601CE01DF91CF911F910F91E6
:1012B000FF90EF90DF90CF900C94BB084F925F921D
:1012C0006F927F928F929F92AF92BF92CF92DF9256
:1012D000EF92FF920F931F93CF93DF93EC016A017C
:1012E0007B01B22E9A01AB01C701B6010E94F01337
:1012F000882319F06EEE71E027C026013701E894CB
:1013000077F82FEF3FEF4FE75FE7C301B2010E948D
:10131000F01381110DC02FEF3FEF4FE75FE7C301DF
:10132000B2010E94C91118161CF462EF71E00CC0E2
:101330002FEF3FEF4FE75FE4C701B6010E9479133B
:101340001816ACF466EF71E0CE01DF91CF911F91DA
:101350000F91FF90EF90DF90CF90BF90AF909F9054
:101360008F907F906F905F904F900C948A082FEF32
:101370003FEF4FE75FECC701B6010E94C91187FD3F
:10138000E1CF20E030E0A901C701B6010E94C911F8
:1013900087FF0AC06DE2CE010E94A0088C01F7FA17
:1013A000F094F7F8F09402C000E010E0A12C60E0A7
:1013B00070E080E09FE3AB1441F020E030E040E2D9
:1013C00051E40E94D011A394F6CF9B01AC01C70158
:1013D000B6010E9403116B017C010E943D122B019A
:1013E0003C010E9469129B01AC01C701B6010E9439
:1013F00002116B017C012AE0B301A201CE010E941F
:10140000BB08080F191FBB2039F06AEF71E0CE014D
:101410000E948A08080F191F7B2C772041F120E0D9
:1014200030E040E251E4C701B6010E9484136B0131
:101430007C010E9438124B01AA2497FCA094BA2C7C
:101440002AE030E0B501A401CE010E941409080F82
:10145000191FC501B4010E946B129B01AC01C701A9
:10146000B6010E9402116B017C017A94D6CFC801AB
:10147000DF91CF911F910F91FF90EF90DF90CF9070
:10148000BF90AF909F908F907F906F905F904F90A4
:1014900008950F931F93CF93DF93EC010E945E0991
:1014A0008C01CE010E94A708800F911FDF91CF9180
:1014B0001F910F9108950F931F93CF93DF93EC012A
:1014C0000E94BE06688779878A879B87E881F981B1
:1014D0000680F781E02DCE01099597FF15C00E9487
:1014E000BE06088519852A853B85601B710B820B1A
:1014F000930B0C811D812E813F816017710782073C
:10150000930720F38FEF9FEFDF91CF911F910F9102
:1015100008950F931F93CF93DF93EC010E94BE06B3
:10152000688779878A879B87E881F9810084F185BC
:10153000E02DCE01099597FF15C00E94BE060885D3
:1015400019852A853B85601B710B820B930B0C81DF
:101550001D812E813F81601771078207930720F359
:101560008FEF9FEFDF91CF911F910F910895CF9350
:10157000DF93EC01CE010E94890A97FD11C08D32E4
:10158000910571F09C01205331092A30310540F05A
:10159000E881F9810680F781E02DCE010995EACF37
:1015A000DF91CF910895CF92DF92FF920F931F9317
:1015B000CF93DF9300D000D0CDB7DEB76C01062FFC
:1015C0000E94B70AFC0197FD4BC020E030E0A90162
:1015D000F12C112707FD1095E017F107E9F0ED3226
:1015E000F105C1F0CF01C0970A97B0F4AAE0B0E0CE
:1015F0000E9435149B01AC01CF01AA2797FDA0954D
:10160000BA2F280F391F4A1F5B1F20533109410988
:10161000510902C0FF24F394D601ED91FC9106809C
:10162000F781E02DC60129833A834B835C830995BA
:10163000C6010E94890AFC01C09729813A814B8129
:101640005C810A9748F2E017F10731F2FF2061F060
:1016500066277727CB01621B730B840B950B06C0A3
:1016600060E070E0CB0102C0CA01B9010F900F9099
:101670000F900F90DF91CF911F910F91FF90DF900E
:10168000CF90089561E00C94D30A7F928F929F923D
:10169000AF92BF92CF92DF92EF92FF920F931F9380
:1016A000CF93DF93EC01762E0E94B70AE82F87FDD7
:1016B0006AC0812C912C80E8A82E8FE3B82EC12C13
:1016C000D12C760110E000E0E71579F1ED3251F10F
:1016D000EE3251F180ED8E0F8A3038F5AAE0B0E09D
:1016E000A70196010E9435146B017C014E2F5527EE
:1016F00047FD5095652F752FC40ED51EE61EF71EAB
:1017000080E3C81AD108E108F108112371F02DEC2B
:101710003CEC4CEC5DE3C501B4010E9484134B0129
:101720005C0102C001E001C011E0E881F98106809E
:10173000F781E02DCE010995CE010E94890AE82F9C
:1017400090ED980F9A3008F4BFCF8E3209F4BCCFD9
:10175000871509F4B9CF002341F0F094E094D094B8
:10176000C094C11CD11CE11CF11CC701B60111239E
:1017700039F00E946B12A50194010E94841306C0E7
:101780000E946B1203C060E070E0CB01DF91CF914B
:101790001F910F91FF90EF90DF90CF90BF90AF908F
:1017A0009F908F907F90089561E00C94450BEF928D
:1017B000FF920F931F93CF93DF93EC018B01E42EE5
:1017C0006EE871E00E946D0CC8010E945B0AFF2464
:1017D000E7FCF09497FD0BC08E159F0541F0682F34
:1017E000CE010E94B00CC8010E945B0AF3CFCE016B
:1017F000DF91CF911F910F91FF90EF900895FC0121
:10180000808191810C945710CF93DF93EC018881F4
:101810009981009711F00E945710198218821D8239
:101820001C821B821A82DF91CF9108950F931F9320
:10183000CF93DF93EC018B016F5F7F4F888199819C
:101840000E94D60E009731F0998388831B830A8308
:1018500081E001C080E0DF91CF911F910F91089549
:10186000CF93DF93EC0188819981892B29F08A81BC
:101870009B818617970760F4CE010E94160C88237F
:1018800041F08C819D81892B19F4E881F9811082C6
:1018900081E0DF91CF910895EF92FF920F931F9314
:1018A000CF93DF93EC017B018A01BA010E94300CD7
:1018B000811104C0CE010E94040C07C01D830C835B
:1018C000B701888199810E94FB10CE01DF91CF91F1
:1018D0001F910F91FF90EF900895FC0111821082EB
:1018E000138212821582148216826115710559F0D5
:1018F000FB0101900020E9F7AF0141505109461B5F
:10190000570B0C944C0C0895EF92FF920F931F937A
:10191000CF93DF93EC017B010C811D816115710573
:1019200011F480E016C04115510591F0040F151F08
:10193000B8010E94300C8823A1F3288139818C8161
:101940009D81B701820F931F0E94FB101D830C83A2
:1019500081E0DF91CF911F910F91FF90EF9008955B
:10196000CF93DF9300D0CDB7DEB769831A8241E011
:1019700050E0BE016F5F7F4F0E94840C0F900F906C
:10198000DF91CF910895FC0124813581232B31F41F
:1019900021E061157105A1F0FB0108C0FC01808107
:1019A00091816115710531F421E0FC01808188236A
:1019B00039F005C00E94F21021E0892B09F020E0E7
:1019C000822F08950E9413070E94C403CBEBDDE031
:1019D0000E942D042097E1F30E94BB0DF9CFFC017A
:1019E00024853585F901E05CFF4F80819181329635
:1019F00020813181821B930B8F7399270895FC01FD
:101A000084859585FC01E05CFF4F408151813296D1
:101A1000208131814217530741F00190F081E02D80
:101A2000E80FF91F808190E008958FEF9FEF0895F0
:101A3000FC0184859585FC01E05CFF4F408151816C
:101A40003296208131814217530779F0A081B1810C
:101A5000A80FB91F8C91208131812F5F3F4F2F73C9
:101A600033273183208390E008958FEF9FEF08950F
:101A7000FC0181A1882329F0A489B5898C9186FF76
:101A8000FBCF11A20895CF93DF93FC012685378504
:101A9000D901A05CBF4F8D919C91119701968F73D6
:101AA0009927E901CE5BDF4F48815981841795075B
:101AB000D9F30D90BC91A02DA20FB31F6C93A685F6
:101AC000B785A05CBF4F11969C938E93A689B7896A
:101AD0002C9181E090E0078C02C0880F991F0A9436
:101AE000E2F7282B2C9381E081A30488F589E02D6F
:101AF00080818064808381E090E0DF91CF910895C0
:101B000008951F920F920FB60F9211242F933F93B7
:101B10004F938F939F93EF93FF938091C00082FD2B
:101B20001CC04091C6008091CF029091D0020196D6
:101B30008F7399272091D1023091D2028217930797
:101B400071F0E091CF02F091D002E157FD4F408358
:101B50009093D0028093CF0202C08091C600FF9183
:101B6000EF919F918F914F913F912F910F900FBEC9
:101B70000F901F90189589E292E00E94EF0C892B3C
:101B800011F00C94800D08951F920F920FB60F92D2
:101B900011242F933F938F939F93EF93FF93209163
:101BA0008B0230918C0280918D0290918E022817C9
:101BB000390731F48091C1008F7D8093C10014C03A
:101BC000E0918D02F0918E02E55BFD4F20818091C6
:101BD0008D0290918E0201968F73992790938E02B9
:101BE00080938D022093C600FF91EF919F918F917A
:101BF0003F912F910F900FBE0F901F901895CF928D
:101C0000DF92EF92FF92CF93DF93EC016A017B01A9
:101C1000411581EE580761057105F9F0EC89FD89E0
:101C200081E090E008A002C0880F991F0A94E2F7B3
:101C3000808360E079E08DE390E0A70196010E9447
:101C4000131421503109410951095695479537958B
:101C50002795211580E1380798F0EC89FD891082DD
:101C600060E874E88EE190E0A70196010E941314E9
:101C700021503109410951095695479537952795C6
:101C8000E889F9893083EA89FB89208319A2EE89E2
:101C9000FF89408181E090E09C010C8C02C0220F02
:101CA000331F0A94E2F7422B4083EE89FF8940817B
:101CB0009C010D8C02C0220F331F0A94E2F7422BC5
:101CC0004083EE89FF8940819C010E8C02C0220F67
:101CD000331F0A94E2F7422B4083EE89FF8920816B
:101CE0000F8C02C0880F991F0A94E2F78095822317
:101CF0008083DF91CF91FF90EF90DF90CF90089598
:101D000010922C0210922B0288EE93E0A0E0B0E03B
:101D100080932D0290932E02A0932F02B093300255
:101D200080E092E090932A02809329028FE892E06B
:101D300090933602809335028BE492E090933802C0
:101D40008093370285EC90E090933A0280933902B9
:101D500084EC90E090933C0280933B0280EC90E016
:101D600090933E0280933D0281EC90E0909340027C
:101D700080933F0282EC90E0909342028093410274
:101D800086EC90E0909344028093430284E0809339
:101D9000450283E08093460287E08093470285E016
:101DA0008093480281E08093490208956F927F9268
:101DB0008F929F92AF92BF92CF92DF92EF92FF925B
:101DC0000F931F93CF93DF93EC01CB01209781F406
:101DD000DF91CF911F910F91FF90EF90DF90CF9007
:101DE000BF90AF909F908F907F906F900C94BF0F9B
:101DF000FE01E60FF71F9E0122503109E217F3079B
:101E000008F4ACC0D9010D911C9111970617170762
:101E1000B8F00530110508F49FC0A80144505109DD
:101E20004617570708F498C002501109061B170BF4
:101E3000019311936D937C93CF010E9457108CC036
:101E40005B01A01AB10A4E01800E911EA091D5022D
:101E5000B091D602612C712C60E070E0109709F40B
:101E600049C0A815B905C9F5ED90FC901197670117
:101E700042E0C40ED11CCA14DB0478F147018A1871
:101E80009B08640142E0C40ED11C1296BC901297CC
:101E90001396AC91B5E0CB16D10440F0B282A38387
:101EA00091828082D9018D939C9309C00E5F1F4F50
:101EB0000E0D1F1DF90111830083EB2DFA2F611503
:101EC000710531F0DB011396FC93EE93129744C039
:101ED000F093D602E093D5023FC06D917C911197AB
:101EE0006616770608F43B01BD0112960D90BC9171
:101EF000A02DB4CF6091D3027091D40268157905FA
:101F0000E9F468167906D0F4409103015091040178
:101F10004115510541F44DB75EB7609107017091CD
:101F20000801461B570BE417F507C0F4F093D402E1
:101F3000E093D302F901918380830EC00E94BF0F0A
:101F40007C01009759F0A801BE010E94E910CE0162
:101F50000E945710C70104C0CE0102C080E090E08B
:101F6000DF91CF911F910F91FF90EF90DF90CF9075
:101F7000BF90AF909F908F907F906F900895CF9378
:101F8000DF938230910510F482E090E0E091D50279
:101F9000F091D60220E030E0A0E0B0E0309739F1D7
:101FA0004081518148175907B8F04817590771F413
:101FB00082819381109729F013969C938E931297A8
:101FC0002CC09093D6028093D50227C021153105ED
:101FD00031F04217530718F0A901DB0101C0EF01EE
:101FE0009A01BD01DF010280F381E02DD7CF2115D9
:101FF0003105F9F0281B390B2430310580F48A8132
:102000009B816115710521F0FB019383828304C0DC
:102010009093D6028093D502FE01329644C0FE0111
:10202000E20FF31F81939193225031093983288362
:102030003AC02091D3023091D402232B41F4209155
:102040000501309106013093D4022093D3022091F0
:102050000301309104012115310541F42DB73EB73C
:102060004091070150910801241B350BE091D302E8
:10207000F091D402E217F307A0F42E1B3F0B2817B0
:10208000390778F0AC014E5F5F4F2417350748F0F1
:102090004E0F5F1F5093D4024093D30281939193CC
:1020A00002C0E0E0F0E0CF01DF91CF910895CF933F
:1020B000DF93009709F487C0FC01329713821282E4
:1020C000C091D502D091D602209781F42081318130
:1020D000280F391F8091D3029091D4028217930761
:1020E00079F5F093D402E093D3026DC0DE0120E0D5
:1020F00030E0AE17BF0750F412964D915C911397E4
:102100009D014115510509F1DA01F3CFB383A28393
:1021100040815181840F951F8A179B0771F48D911F
:102120009C911197840F951F02969183808312963C
:102130008D919C911397938382832115310529F406
:10214000F093D602E093D5023EC0D9011396FC93DA
:10215000EE9312974D915D91A40FB51FEA17FB07FF
:1021600079F480819181840F951F0296D90111968F
:102170009C938E938281938113969C938E93129756
:10218000E0E0F0E08A819B81009719F0FE01EC010C
:10219000F9CFCE01029628813981820F931F2091B9
:1021A000D3023091D4022817390769F4309729F403
:1021B0001092D6021092D50202C013821282D093DE
:1021C000D402C093D302DF91CF910895F8940C9478
:1021D0005514FB01DC0102C001900D9241505040AA
:1021E000D8F70895FB01DC018D9101908019011051
:1021F000D9F3990B0895FB01DC0101900D920020A9
:10220000E1F708955058BB27AA270ED027C2F0D176
:1022100030F0F5D120F031F49F3F11F41EF4C0C12D
:102220000EF4E095E7FBB6C1E92F3AD280F3BA1776
:10223000620773078407950718F071F49EF552C280
:102240000EF4E0950B2EBA2FA02D0B01B9019001D1
:102250000C01CA01A0011124FF27591B99F0593F15
:1022600050F4503E68F11A16F040A22F232F342F5D
:102270004427585FF3CF469537952795A795F040AB
:102280005395C9F77EF41F16BA0B620B730B840BC0
:10229000BAF09150A1F0FF0FBB1F661F771F881F78
:1022A000C2F70EC0BA0F621F731F841F48F48795D0
:1022B00077956795B795F7959E3F08F0B3CF9395BF
:1022C000880F08F09927EE0F97958795089590D17C
:1022D00058F080E891E009F49EEF91D128F040E8B1
:1022E00051E059F45EEF09C05BC1FCC1E92FE07811
:1022F000D7D168F3092E052AC1F3261737074807F7
:10230000590738F00E2E07F8E02569F0E025E06463
:102310000AC0EF6307F8009407FADB01B9019D01D9
:10232000DC01CA01AD01EF934AD098D10AD05F9188
:10233000552331F02BED3FE049E450FD49EC63CFEC
:102340000895DF93DD27B92FBF7740E85FE31616C6
:10235000170648075B0710F4D92FCFD19F938F93AF
:102360007F936F933AD2E8E6F0E01DD177D12F91B9
:102370003F914F915F91D4D1DD2349F09058A2EA6B
:102380002AED3FE049EC5FE3D0785D274DDFDF9138
:1023900065C1DCD008F481E0089539D1E3956FC1BF
:1023A0000CD05CC12CD140F023D130F021F45F3F40
:1023B00019F0F0C0511197C1F3C072D198F399236D
:1023C000C9F35523B1F3951B550BBB27AA276217F9
:1023D0007307840738F09F5F5F4F220F331F441F3E
:1023E000AA1FA9F333D00E2E3AF0E0E830D0915076
:1023F0005040E695001CCAF729D0FE2F27D0660F63
:10240000771F881FBB1F261737074807AB07B0E8A1
:1024100009F0BB0B802DBF01FF2793585F4F2AF0B7
:102420009E3F510568F0B6C05EC15F3FECF3983E39
:10243000DCF3869577956795B795F7959F5FC9F714
:10244000880F911D9695879597F90895E1E0660F9D
:10245000771F881FBB1F621773078407BA0720F016
:10246000621B730B840BBA0BEE1F88F7E09508957F
:1024700004D06894B11137C108951AD188F09F57DC
:1024800090F0B92F9927B751A0F0D1F0660F771FC0
:10249000881F991F1AF0BA95C9F712C0B13081F0A0
:1024A00021D1B1E008951EC1672F782F8827B85F2A
:1024B00039F0B93FCCF3869577956795B395D9F701
:1024C0003EF490958095709561957F4F8F4F9F4F0B
:1024D0000895E89409C097FB3EF490958095709517
:1024E00061957F4F8F4F9F4F9923A9F0F92F96E960
:1024F000BB279395F695879577956795B795F111D5
:10250000F8CFFAF4BB0F11F460FF1BC06F5F7F4F71
:102510008F4F9F4F16C0882311F096E911C0772383
:1025200021F09EE8872F762F05C0662371F096E88C
:10253000862F70E060E02AF09A95660F771F881F5B
:10254000DAF7880F9695879597F90895990F0008FF
:10255000550FAA0BE0E8FEEF16161706E807F90775
:10256000C0F012161306E407F50798F0621B730B10
:10257000840B950B39F40A2661F0232B242B252B91
:1025800021F408950A2609F4A140A6958FEF811D34
:10259000811D089597F99F6780E870E060E00895D5
:1025A0009FEF80EC0895DF93CF931F930F93FF92DB
:1025B000EF92DF927B018C01689405C0DA2EEF0167
:1025C000AFD0FE01E894A5912591359145915591A3
:1025D000AEF3EF0129DEFE019701A801DA9479F745
:1025E000DF90EF90FF900F911F91CF91DF910895B1
:1025F00000240A94161617061806090608950024E2
:102600000A9412161306140605060895C9CF50D071
:10261000E8F3E894E0E0BB279F57F0F02AED3FE0B5
:1026200049EC06C0EE0FBB0F661F771F881F28F00E
:10263000B23A62077307840728F0B25A620B730B31
:10264000840BE3959A9572F7803830F49A95BB0F16
:10265000661F771F881FD2F79048C8C0092E0394C1
:10266000000C11F4882352F0BB0F40F4BF2B11F47F
:1026700060FF04C06F5F7F4F8F4F9F4F0895EF93B0
:10268000E0FF06C0A2EA2AED3FE049EC5FEBCCDDBB
:10269000E5DF0F90039401FC9058E5E9F0E0B2C04B
:1026A00057FD9058440F551F59F05F3F71F0479503
:1026B000880F97FB991F61F09F3F79F087950895E8
:1026C000121613061406551FF2CF4695F1DF08C007
:1026D000161617061806991FF1CF86957105610524
:1026E00008940895E894BB2766277727CB0197F9CC
:1026F00008952CDF08F48FEF08959B01AC0160E092
:1027000070E080E89FE34CCE0BD0A8CF71DF28F0BB
:1027100076DF18F0952309F03DCF42CF1124E3CFA7
:10272000BFDFA0F3959FD1F3950F50E0551F629F37
:10273000F001729FBB27F00DB11D639FAA27F00D1A
:10274000B11DAA1F649F6627B00DA11D661F829F41
:102750002227B00DA11D621F739FB00DA11D621F26
:10276000839FA00D611D221F749F3327A00D611D43
:10277000231F849F600D211D822F762F6A2F112425
:102780009F5750408AF0E1F088234AF0EE0FFF1F78
:10279000BB1F661F771F881F91505040A9F79E3FAF
:1027A000510570F0F7CE9FCF5F3FECF3983EDCF31E
:1027B000869577956795B795F795E7959F5FC1F7EC
:1027C000FE2B880F911D9695879597F908959F93F5
:1027D0001EDF0F9007FCEE5F52CF9B01AC0194CF40
:1027E000B5DE880B990B08959F3F31F0915020F48E
:1027F000879577956795B795880F911D96958795DD
:1028000097F908959F938F937F936F93FF93EF931F
:102810009B01AC0179DFEF91FF91C5DE2F913F91D4
:102820004F915F9171CFA1E21A2EAA1BBB1BFD0134
:102830000DC0AA1FBB1FEE1FFF1FA217B307E4079F
:10284000F50720F0A21BB30BE40BF50B661F771FF7
:10285000881F991F1A9469F76095709580959095D7
:102860009B01AC01BD01CF0108950E944614A59FB4
:10287000900DB49F900DA49F800D911D112408957B
:10288000EE0FFF1F0590F491E02D0994A29FB00177
:10289000B39FC001A39F700D811D1124911DB29F94
:0E28A000700D811D1124911D0895F894FFCF35
:1028AE000101010000D70280003F626174746572FD
:1028BE0079003F62617474657279200021737465CA
:1028CE006572002168616C74200021726F6E2000A9
:1028DE0021626F6E200021676F6E200021726F667D
:1028EE0066200021676F6666200021626F66662093
:1028FE00002172666F7277200021726261636B2015
:10290E0000216C666F72772000216C6261636B2010
:10291E000021736574616E676C6520003F78003F1F
:10292E007820003F7920003F746865746120002193
:10293E00737465657220002168616C740021726F7A
:10294E006E0021626F6E0021676F6E0021726F66DE
:10295E00660021676F66660021626F6666002172EF
:10296E00666F72770021726261636B00216C666F15
:10297E00727700216C6261636B0021736574616E06
:10298E00676C65003F79003F7468657461006E6125
:10299E006E00696E66006F7666002E000000000005
:0C29AE00430D6208EF0C180DFF0C380DF3
:00000001FF
