:100000000C946C000C94DE040C940B050C9494007E
:100010000C9494000C9494000C9494000C94940010
:100020000C9494000C9494000C9494000C94940000
:100030000C9494000C9494000C9494000C949400F0
:100040000C94C00C0C9494000C946B0B0C94AE0BA1
:100050000C9494000C9494000C9494000C949400D0
:100060000C9494000C94940005A84CCDB2D44EB9D5
:100070003836A9020C50B9918688083CA6AAAA2A4B
:10008000BE000000803F00000007000201000003E6
:100090000406000000000000000001020408102017
:1000A000408001020408102001020408102004040A
:1000B0000404040404040202020202020303030310
:1000C000030300000000250028002B0000000000B2
:1000D000240027002A006A0C11241FBECFEFD8E0AD
:1000E000DEBFCDBF11E0A0E0B1E0ECECF4E202C075
:1000F00005900D92A83FB107D9F722E0A8EFB1E033
:1001000001C01D92A33CB207E1F710E0C8EDD0E0BA
:1001100004C02297FE010E945112C63DD107C9F7C3
:100120000E94CC0A0C94610F0C94000060E070E017
:1001300085E00E94550560E070E08AE00E94550568
:1001400060E070E086E00E94550560E070E089E0C4
:100150000C9455054F925F926F927F928F929F926F
:10016000AF92BF92CF92DF92EF92FF920F931F93C5
:10017000CF93DF9369017A019B01AC010E947E0F4E
:100180004B015C0120E030E040E951E4C701B601D9
:100190000E9496112B013C019B01AC01C501B401E9
:1001A0000E947D0F20E030E040EE50E40E94E90F15
:1001B00020E030E04FE753E40E94961120E030E069
:1001C00040E251E40E94E90F0E9451106B017C0152
:1001D000EB01A3019201C501B4010E947E0F20E052
:1001E00030E040EE50E40E94E90F20E030E04FE7BD
:1001F00053E40E94961120E030E040E251E40E9476
:10020000E90F0E9451104B015C018B0181E0181431
:1002100019040CF080E08093010181E01C161D069A
:100220000CF080E0809300010E949600B40117FF5B
:1002300002C060E070E085E00E94550510161106CE
:100240002CF0662777276819790902C060E070E012
:1002500086E00E945505B601D7FF02C060E070E05D
:100260008AE00E9455051C161D062CF0662777278C
:100270006C197D0902C060E070E089E0DF91CF91E8
:100280001F910F91FF90EF90DF90CF90BF90AF90B4
:100290009F908F907F906F905F904F900C9455053A
:1002A0008F929F92AF92BF92CF92DF92EF92FF9286
:1002B000F8946091040270910502809101018823F5
:1002C00031F08091040290910502019605C0809161
:1002D0000402909105020197909305028093040215
:1002E0008091040290910502681B790B882777FDA5
:1002F0008095982F0E9484102FE936E244E95FE34D
:100300000E9496116B017C01809000029090010286
:10031000A0900202B090030220E030E040E951E4F6
:100320000E94E90F9B01AC01C501B4010E947D0F41
:100330006093000270930102809302029093030283
:100340008090FC019090FD01A090FE01B090FF0113
:10035000609100027091010280910202909103026B
:100360000E94E60FA70196010E9496119B01AC0125
:10037000C501B4010E947E0F6093FC017093FD01E2
:100380008093FE019093FF018090F8019090F90115
:10039000A090FA01B090FB016091000270910102FF
:1003A00080910202909103020E94F911A701960127
:1003B0000E9496119B01AC01C501B4010E947E0F01
:1003C0006093F8017093F9018093FA019093FB0117
:1003D0007894FF90EF90DF90CF90BF90AF909F9078
:1003E0008F9008958F929F92AF92BF92CF92DF929B
:1003F000EF92FF92F894609106027091070280914B
:100400000001882331F08091060290910702019645
:1004100005C0809106029091070201979093070210
:10042000809306028091060290910702681B790B67
:10043000882777FD8095982F0E9484102FE936E257
:1004400044E95FE30E9496116B017C0180900002F9
:1004500090900102A0900202B090030220E030E0F0
:1004600040E951E40E94E90F9B01AC01C501B401D0
:100470000E947D0F6093000270930102809302023C
:10048000909303028090FC019090FD01A090FE01EA
:10049000B090FF0160910002709101028091020210
:1004A000909103020E94E60FA70196010E94961107
:1004B0009B01AC01C501B4010E947E0F6093FC0159
:1004C0007093FD018093FE019093FF018090F801ED
:1004D0009090F901A090FA01B090FB0160910002A8
:1004E0007091010280910202909103020E94F91121
:1004F000A70196010E9496119B01AC01C501B401B0
:100500000E947E0F6093F8017093F9018093FA01C5
:100510009093FB017894FF90EF90DF90CF90BF9085
:10052000AF909F908F90089580E10E943805BC01A4
:10053000882777FD8095982F0E94841020E030E076
:1005400040EA5CE30E949611089540E052EC61E0BD
:1005500070E08CE092E00E94E90B61E085E00E948F
:10056000DD0561E086E00E94DD0561E089E00E9432
:10057000DD0561E08AE00E94DD0561E08BE00E941C
:10058000DD0561E08CE00E94DD0561E08DE00E9408
:10059000DD0541E050E060E571E081E00E94BE04CD
:1005A00041E050E062EF71E080E00E94BE04789488
:1005B0000895CF93DF9300D000D0CDB7DEB78CE0A5
:1005C00092E00E94E90A809729F48CE092E00E9470
:1005D000020BF5CF8CE092E00E94E90A8D9729F09A
:1005E00020E030E040E85FE304C020E030E040E895
:1005F0005FEB8CE092E029833A834B835C830E941B
:10060000BE0929813A814B815C810E9496110F902D
:100610000F900F900F90DF91CF910895CF92DF92BE
:10062000EF92FF92CF93DF93CDB7DEB72E970FB641
:10063000F894DEBF0FBECDBF8CE092E00E94D90AD5
:10064000892B09F48EC140E26CE072E0CE0108967D
:100650000E94C10969E071E0CE0108960E94AD0ACE
:10066000811108C062E171E0CE0108960E94AD0AD6
:100670008823D1F00E949402AB01BC0122E030E05B
:100680008CE092E00E9433084AE06CE072E0CE0118
:1006900001960E94C109CE0101960E94E909CE018E
:1006A00008960E94E9095DC161E871E0CE010896F3
:1006B0000E94AD0A811108C06CE171E0CE0108967C
:1006C0000E94AD0A882371F00E94D9026B017C015F
:1006D0000E94D9029B01AC015058C701B6010E948B
:1006E000AA00D2CF69E871E0CE0108960E94AD0A57
:1006F000811108C063E271E0CE0108960E94AD0A44
:10070000882319F00E949600BFCF6FE871E0CE01F8
:1007100008960E94AD0A811108C06AE271E0CE011C
:1007200008960E94AD0A882311F061E031C064E9A7
:1007300071E0CE0108960E94AD0A81112BC060E3E2
:1007400071E0CE0108960E94AD0A811123C069E9CB
:1007500071E0CE0108960E94AD0A81111EC066E3C9
:1007600071E0CE0108960E94AD0A811116C06EE9B3
:1007700071E0CE0108960E94AD0A811108C06CE3B9
:1007800071E0CE0108960E94AD0A882359F060E01E
:100790008BE005C061E08DE002C061E08CE00E946A
:1007A000160672CF64EA71E0CE0108960E94AD0A87
:1007B000811108C063E471E0CE0108960E94AD0A81
:1007C000882311F060E0EACF6AEA71E0CE01089672
:1007D0000E94AD0A811108C06AE471E0CE0108965A
:1007E0000E94AD0A882311F060E0D5CF60EB71E084
:1007F000CE0108960E94AD0A811108C061E571E042
:10080000CE0108960E94AD0A882359F08CE092E050
:100810000E942C098AE00E94550560E070E089E0A2
:1008200051C067EB71E0CE0108960E94AD0A8111BC
:1008300008C069E571E0CE0108960E94AD0A8823E0
:1008400059F08CE092E00E942C0989E00E94550545
:1008500060E070E08AE036C06EEB71E0CE01089691
:100860000E94AD0A811119C061E671E0CE010896BF
:100870000E94AD0A811111C065EC71E0CE010896AD
:100880000E94AD0A811114C069E671E0CE0108969C
:100890000E94AD0A81110CC018C08CE092E00E9449
:1008A0002C0985E00E94550560E070E086E00AC0F2
:1008B0008CE092E00E942C0986E00E94550560E0E1
:1008C00070E085E00E945505DFCE6CEC71E0CE0152
:1008D00008960E94AD0A811108C061E771E0CE015F
:1008E00008960E94AD0A882349F04091FC0150917E
:1008F000FD016091FE017091FF01C0CE6FEC71E0CF
:10090000CE0108960E94AD0A811108C065E771E02A
:10091000CE0108960E94AD0A882349F04091F80163
:100920005091F9016091FA017091FB01A7CE62ED3F
:1009300071E0CE0108960E94AD0A811109C069E7F5
:1009400071E0CE0108960E94AD0A882309F49CCE7E
:1009500040910002509101026091020270910302E5
:100960008DCE2E960FB6F894DEBF0FBECDBFDF91B1
:10097000CF91FF90EF90DF90CF9008958230E8F410
:10098000E82FF0E0EE0FFF1FE85FFD4F71836083FB
:10099000813041F0809169008C7F842B80936900C5
:1009A000E89A089580916900440F551F440F551F20
:1009B000837F842B80936900E99A08951F920F9298
:1009C0000FB60F9211242F933F934F935F936F9322
:1009D0007F938F939F93AF93BF93EF93FF938091F8
:1009E000080290910902892B29F0E0910802F09108
:1009F00009020995FF91EF91BF91AF919F918F915E
:100A00007F916F915F914F913F912F910F900FBE0A
:100A10000F901F9018951F920F920FB60F921124EE
:100A20002F933F934F935F936F937F938F939F93F6
:100A3000AF93BF93EF93FF9380910A0290910B02C3
:100A4000892B29F0E0910A02F0910B020995FF91A0
:100A5000EF91BF91AF919F918F917F916F915F9136
:100A60004F913F912F910F900FBE0F901F901895AF
:100A70008E3008F08E5087702091020190E4299FFB
:100A800090011124822B80937C0080917A008064F5
:100A900080937A0080917A0086FDFCCF8091780067
:100AA0002091790090E0922B08951F93CF93DF93CC
:100AB000182FEB0161E00E94DD05209711F460E042
:100AC00004C0CF3FD10539F461E0812FDF91CF9190
:100AD0001F910C941606E12FF0E0EA57FF4FE491C6
:100AE000E330F9F048F4E130B9F0E230A1F584B533
:100AF000806284BDC8BD34C0E630E9F0E73019F14A
:100B0000E43049F580918000806280938000D0932A
:100B10008B00C0938A0024C084B5806884BDC7BDA3
:100B20001FC080918000806880938000D0938900EE
:100B3000C093880015C08091B00080688093B00099
:100B4000C093B3000DC08091B00080628093B0006C
:100B5000C093B40005C0C038D1050CF0B5CFAFCFFD
:100B6000DF91CF911F910895833081F028F4813077
:100B700099F08230A1F008958630A9F08730B9F05D
:100B80008430D1F4809180008F7D03C080918000FB
:100B90008F7780938000089584B58F7702C084B5E5
:100BA0008F7D84BD08958091B0008F7703C08091C0
:100BB000B0008F7D8093B0000895CF93DF9390E0D5
:100BC000FC01E656FF4F2491FC01E255FF4F849152
:100BD000882349F190E0880F991FFC01E453FF4FEF
:100BE000A591B4918E539F4FFC01C591D4919FB7AD
:100BF000611108C0F8948C91209582238C93888190
:100C000082230AC0623051F4F8948C91322F3095CF
:100C100083238C938881822B888304C0F8948C91E1
:100C2000822B8C939FBFDF91CF9108950F931F93D9
:100C3000CF93DF931F92CDB7DEB7282F30E0F901B5
:100C4000EA57FF4F8491F901E656FF4F1491F901DD
:100C5000E255FF4F04910023C9F0882321F06983F6
:100C60000E94B4056981E02FF0E0EE0FFF1FEE5304
:100C7000FF4FA591B4919FB7F8948C91611103C077
:100C80001095812301C0812B8C939FBF0F90DF9122
:100C9000CF911F910F910895CF92DF92EF92FF9223
:100CA0000F931F93CF93DF936C017A01EB01E60E54
:100CB000F71E00E010E0CE15DF0561F06991D60166
:100CC000ED91FC910190F081E02DC6010995080F8E
:100CD000191FF1CFC801DF91CF911F910F91FF90A4
:100CE000EF90DF90CF9008956115710581F0DB01E1
:100CF0000D900020E9F7AD0141505109461B570BFB
:100D0000DC01ED91FC910280F381E02D099480E0FB
:100D100090E00895DC01ED91FC910190F081E02DCF
:100D200009940F931F93CF93DF93EC016DE00E9422
:100D30008A068C016AE0CE010E948A06800F911F0C
:100D4000DF91CF911F910F9108958F929F92AF9253
:100D5000BF92CF92DF92EF92FF920F931F93CF93A8
:100D6000DF93CDB7DEB7A1970FB6F894DEBF0FBE05
:100D7000CDBF7C01C42EE52FCB01D22E19A221E0DC
:100D80002D1510F02AE0D22E8E010F5D1F4F8D2CF5
:100D9000912CA12CB12C6C2D7E2FA50194010E94C9
:100DA00022128C2DD29E80191124015011098A30F3
:100DB00014F4805D01C0895CF80180832115310540
:100DC0004105510521F0C22EE32FCA01E4CFB8013D
:100DD000C7010E947406A1960FB6F894DEBF0FBE3D
:100DE000CDBFDF91CF911F910F91FF90EF90DF90DA
:100DF000CF90BF90AF909F908F900895CF92DF9249
:100E0000EF92FF920F931F93CF93DF93EC016A0150
:100E10007B012115310579F4E881F9810190F08198
:100E2000E02D642FDF91CF911F910F91FF90EF90F4
:100E3000DF90CF9009942A303105E9F477FF1AC08A
:100E40006DE20E948A068C0144275527BA014C198D
:100E50005D096E097F092AE0CE010E94A506800F78
:100E6000911FDF91CF911F910F91FF90EF90DF9035
:100E7000CF9008952AE0B701A601CE01DF91CF916E
:100E80001F910F91FF90EF90DF90CF900C94A506EB
:100E90004F925F926F927F928F929F92AF92BF928A
:100EA000CF92DF92EF92FF920F931F93CF93DF9336
:100EB000EC016A017B01B22E9A01AB01C701B601B8
:100EC0000E94FF11882319F069ED71E027C0260107
:100ED0003701E89477F82FEF3FEF4FE75FE7C30163
:100EE000B2010E94FF1181110DC02FEF3FEF4FE7BC
:100EF0005FE7C301B2010E94E20F18161CF46DED0A
:100F000071E00CC02FEF3FEF4FE75FE4C701B60180
:100F10000E9492111816ACF461EE71E0CE01DF91DF
:100F2000CF911F910F91FF90EF90DF90CF90BF90E6
:100F3000AF909F908F907F906F905F904F900C94A8
:100F400074062FEF3FEF4FE75FECC701B6010E9439
:100F5000E20F87FDE1CF20E030E0A901C701B60133
:100F60000E94E20F87FF0AC06DE2CE010E948A064E
:100F70008C01F7FAF094F7F8F09402C000E010E06A
:100F8000A12C60E070E080E09FE3AB1441F020E032
:100F900030E040E251E40E94E90FA394F6CF9B01B8
:100FA000AC01C701B6010E947E0F6B017C010E945B
:100FB00056102B013C010E9482109B01AC01C7011D
:100FC000B6010E947D0F6B017C012AE0B301A201F2
:100FD000CE010E94A506080F191FBB2039F065EE4F
:100FE00071E0CE010E947406080F191F7B2C772038
:100FF00041F120E030E040E251E4C701B6010E9437
:1010000096116B017C010E9451104B01AA2497FCA0
:10101000A094BA2C2AE030E0B501A401CE010E94D0
:10102000FE06080F191FC501B4010E9484109B0120
:10103000AC01C701B6010E947D0F6B017C017A945F
:10104000D6CFC801DF91CF911F910F91FF90EF9004
:10105000DF90CF90BF90AF909F908F907F906F90D8
:101060005F904F9008950F931F93CF93DF93EC0100
:101070000E9448078C01CE010E949106800F911FAB
:10108000DF91CF911F910F9108950F931F93CF93ED
:10109000DF93EC010E940A0D688779878A879B8716
:1010A000E881F9810680F781E02DCE01099597FF4F
:1010B00015C00E940A0D088519852A853B85601B8D
:1010C000710B820B930B0C811D812E813F81601768
:1010D00071078207930720F38FEF9FEFDF91CF9186
:1010E0001F910F9108950F931F93CF93DF93EC01FE
:1010F0000E940A0D688779878A879B87E881F98132
:101100000084F185E02DCE01099597FF15C00E945E
:101110000A0D088519852A853B85601B710B820B9A
:10112000930B0C811D812E813F816017710782070F
:10113000930720F38FEF9FEFDF91CF911F910F91D6
:101140000895CF93DF93EC01CE010E94730897FDC1
:1011500011C08D32910571F09C01205331092A3064
:10116000310540F0E881F9810680F781E02DCE015C
:101170000995EACFDF91CF910895CF92DF92FF9248
:101180000F931F93CF93DF9300D000D0CDB7DEB77E
:101190006C01062F0E94A108FC0197FD4BC020E0C6
:1011A00030E0A901F12C112707FD1095E017F10798
:1011B000E9F0ED32F105C1F0CF01C0970A97B0F424
:1011C000AAE0B0E00E9444129B01AC01CF01AA2723
:1011D00097FDA095BA2F280F391F4A1F5B1F205378
:1011E00031094109510902C0FF24F394D601ED9160
:1011F000FC910680F781E02DC60129833A834B8359
:101200005C830995C6010E947308FC01C09729817F
:101210003A814B815C810A9748F2E017F10731F27D
:10122000FF2061F066277727CB01621B730B840BCD
:10123000950B06C060E070E0CB0102C0CA01B901A5
:101240000F900F900F900F90DF91CF911F910F9102
:10125000FF90DF90CF90089561E00C94BD087F92DD
:101260008F929F92AF92BF92CF92DF92EF92FF92B6
:101270000F931F93CF93DF93EC01762E0E94A1086A
:10128000E82F87FD6AC0812C912C80E8A82E8FE37F
:10129000B82EC12CD12C760110E000E0E71579F1D1
:1012A000ED3251F1EE3251F180ED8E0F8A3038F58A
:1012B000AAE0B0E0A70196010E9444126B017C01F4
:1012C0004E2F552747FD5095652F752FC40ED51EFF
:1012D000E61EF71E80E3C81AD108E108F1081123C1
:1012E00071F02DEC3CEC4CEC5DE3C501B4010E94C7
:1012F00096114B015C0102C001E001C011E0E881E0
:10130000F9810680F781E02DCE010995CE010E947A
:101310007308E82F90ED980F9A3008F4BFCF8E3203
:1013200009F4BCCF871509F4B9CF002341F0F0943C
:10133000E094D094C094C11CD11CE11CF11CC701E5
:10134000B601112339F00E948410A50194010E9476
:10135000961106C00E94841003C060E070E0CB01CB
:10136000DF91CF911F910F91FF90EF90DF90CF9081
:10137000BF90AF909F908F907F90089561E00C9404
:101380002F09EF92FF920F931F93CF93DF93EC01FE
:101390008B01E42E60E871E00E94570AC8010E94A8
:1013A0004508FF24E7FCF09497FD0BC08E159F05C0
:1013B00041F0682FCE010E949A0AC8010E94450898
:1013C000F3CFCE01DF91CF911F910F91FF90EF905E
:1013D0000895FC01808191810C94D20ECF93DF930C
:1013E000EC0188819981009711F00E94D20E198238
:1013F00018821D821C821B821A82DF91CF91089570
:101400000F931F93CF93DF93EC018B016F5F7F4F9F
:10141000888199810E94510D009731F099838883CA
:101420001B830A8381E001C080E0DF91CF911F918F
:101430000F910895CF93DF93EC0188819981892BD7
:1014400029F08A819B818617970760F4CE010E945C
:10145000000A882341F08C819D81892B19F4E88151
:10146000F981108281E0DF91CF910895EF92FF9290
:101470000F931F93CF93DF93EC017B018A01BA0195
:101480000E941A0A811104C0CE010E94EE0907C011
:101490001D830C83B701888199810E94760FCE014C
:1014A000DF91CF911F910F91FF90EF900895FC0174
:1014B00011821082138212821582148216826115A3
:1014C000710559F0FB0101900020E9F7AF0141508F
:1014D0005109461B570B0C94360A0895EF92FF9260
:1014E0000F931F93CF93DF93EC017B010C811D8140
:1014F0006115710511F480E016C04115510591F098
:10150000040F151FB8010E941A0A8823A1F328812D
:1015100039818C819D81B701820F931F0E94760FC4
:101520001D830C8381E0DF91CF911F910F91FF907C
:10153000EF900895CF93DF9300D0CDB7DEB76983E6
:101540001A8241E050E0BE016F5F7F4F0E946E0A39
:101550000F900F90DF91CF910895FC012481358188
:10156000232B31F421E061157105A1F0FB0108C0C6
:10157000FC01808191816115710531F421E0FC014C
:101580008081882339F005C00E946D0F21E0892BEE
:1015900009F020E0822F08950E94160D0E94A502F6
:1015A000C5EADBE00E940E032097E1F30E94A50B41
:1015B000F9CFFC0124853585F901E05CFF4F80817E
:1015C0009181329620813181821B930B8F739927F1
:1015D0000895FC0184859585FC01E05CFF4F408106
:1015E00051813296208131814217530741F0019099
:1015F000F081E02DE80FF91F808190E008958FEFD2
:101600009FEF0895FC0184859585FC01E05CFF4F08
:10161000408151813296208131814217530779F000
:10162000A081B181A80FB91F8C91208131812F5FDA
:101630003F4F2F7333273183208390E008958FEF3E
:101640009FEF0895FC0181A1882329F0A489B58921
:101650008C9186FFFBCF11A20895CF93DF93FC01FD
:1016600026853785D901A05CBF4F8D919C9111973C
:1016700001968F739927E901CE5BDF4F488159812D
:1016800084179507D9F30D90BC91A02DA20FB31F1D
:101690006C93A685B785A05CBF4F11969C938E93E3
:1016A000A689B7892C9181E090E0078C02C0880F51
:1016B000991F0A94E2F7282B2C9381E081A30488D8
:1016C000F589E02D80818064808381E090E0DF9166
:1016D000CF91089508951F920F920FB60F92112483
:1016E0002F933F934F938F939F93EF93FF9380910B
:1016F000C00082FD1CC04091C6008091B202909152
:10170000B30201968F7399272091B4023091B502EC
:101710008217930771F0E091B202F091B302EE5894
:10172000FD4F40839093B3028093B20202C0809138
:10173000C600FF91EF919F918F914F913F912F9113
:101740000F900FBE0F901F9018958CE092E00E94B2
:10175000D90A892B11F00C946A0B08951F920F92ED
:101760000FB60F9211242F933F938F939F93EF9374
:10177000FF9320916E0230916F02809170029091E0
:1017800071022817390731F48091C1008F7D809351
:10179000C10014C0E0917002F0917102E25DFD4F52
:1017A0002081809170029091710201968F73992728
:1017B00090937102809370022093C600FF91EF9185
:1017C0009F918F913F912F910F900FBE0F901F907F
:1017D0001895CF92DF92EF92FF92CF93DF93EC01B7
:1017E0006A017B01411581EE580761057105F9F029
:1017F000EC89FD8981E090E008A002C0880F991F64
:101800000A94E2F7808360E079E08DE390E0A7013D
:1018100096010E9422122150310941095109569521
:10182000479537952795211580E1380798F0EC8981
:10183000FD89108260E874E88EE190E0A7019601CE
:101840000E942212215031094109510956954795AC
:1018500037952795E889F9893083EA89FB892083C0
:1018600019A2EE89FF89408181E090E09C010C8CF7
:1018700002C0220F331F0A94E2F7422B4083EE8905
:10188000FF8940819C010D8C02C0220F331F0A94F6
:10189000E2F7422B4083EE89FF8940819C010E8C48
:1018A00002C0220F331F0A94E2F7422B4083EE89D5
:1018B000FF8920810F8C02C0880F991F0A94E2F7DC
:1018C000809582238083DF91CF91FF90EF90DF900E
:1018D000CF90089510920F0210920E0288EE93E0BE
:1018E000A0E0B0E08093100290931102A093120246
:1018F000B09313028BEE91E090930D0280930C0253
:1019000082E792E090931902809318028EE292E0AF
:1019100090931B0280931A0285EC90E090931D0235
:1019200080931C0284EC90E090931F0280931E022F
:1019300080EC90E0909321028093200281EC90E073
:10194000909323028093220282EC90E090932502F0
:101950008093240286EC90E09093270280932602E5
:1019600084E08093280283E08093290287E08093BB
:101970002A0285E080932B0281E080932C02089557
:101980001F920F920FB60F9211242F933F938F93B4
:101990009F93AF93BF938091B7029091B802A091AB
:1019A000B902B091BA023091B60223E0230F2D376D
:1019B00020F40196A11DB11D05C026E8230F029653
:1019C000A11DB11D2093B6028093B7029093B80277
:1019D000A093B902B093BA028091BB029091BC026D
:1019E000A091BD02B091BE020196A11DB11D8093D0
:1019F000BB029093BC02A093BD02B093BE02BF9104
:101A0000AF919F918F913F912F910F900FBE0F90AB
:101A10001F9018952FB7F8946091B7027091B80293
:101A20008091B9029091BA022FBF0895789484B53D
:101A3000826084BD84B5816084BD85B5826085BDCA
:101A400085B5816085BDEEE6F0E0808181608083B0
:101A5000E1E8F0E010828081826080838081816093
:101A60008083E0E8F0E0808181608083E1EBF0E05A
:101A7000808184608083E0EBF0E0808181608083FE
:101A8000EAE7F0E0808184608083808182608083E7
:101A90008081816080838081806880831092C10012
:101AA00008956F927F928F929F92AF92BF92CF9242
:101AB000DF92EF92FF920F931F93CF93DF93EC018E
:101AC000CB01209781F4DF91CF911F910F91FF906F
:101AD000EF90DF90CF90BF90AF909F908F907F90CE
:101AE0006F900C943A0EFE01E60FF71F9E012250F4
:101AF0003109E217F30708F4ACC0D9010D911C912C
:101B0000119706171707B8F00530110508F49FC0A4
:101B1000A801445051094617570708F498C00250CD
:101B20001109061B170B019311936D937C93CF0141
:101B30000E94D20E8CC05B01A01AB10A4E01800E29
:101B4000911EA091C102B091C202612C712C60E083
:101B500070E0109709F449C0A815B905C9F5ED90D2
:101B6000FC901197670142E0C40ED11CCA14DB043B
:101B700078F147018A189B08640142E0C40ED11C29
:101B80001296BC9012971396AC91B5E0CB16D10487
:101B900040F0B282A38391828082D9018D939C937D
:101BA00009C00E5F1F4F0E0D1F1DF9011183008329
:101BB000EB2DFA2F6115710531F0DB011396FC93C3
:101BC000EE93129744C0F093C202E093C1023FC06B
:101BD0006D917C9111976616770608F43B01BD0163
:101BE00012960D90BC91A02DB4CF6091BF02709160
:101BF000C00268157905E9F468167906D0F44091B9
:101C00000301509104014115510541F44DB75EB7F0
:101C10006091070170910801461B570BE417F50707
:101C2000C0F4F093C002E093BF02F9019183808376
:101C30000EC00E943A0E7C01009759F0A801BE0127
:101C40000E94640FCE010E94D20EC70104C0CE01D3
:101C500002C080E090E0DF91CF911F910F91FF9043
:101C6000EF90DF90CF90BF90AF909F908F907F903C
:101C70006F900895CF93DF938230910510F482E046
:101C800090E0E091C102F091C20220E030E0A0E0DB
:101C9000B0E0309739F14081518148175907B8F0C9
:101CA0004817590771F482819381109729F0139690
:101CB0009C938E9312972CC09093C2028093C10282
:101CC00027C02115310531F04217530718F0A9013B
:101CD000DB0101C0EF019A01BD01DF010280F38148
:101CE000E02DD7CF21153105F9F0281B390B243011
:101CF000310580F48A819B816115710521F0FB011A
:101D00009383828304C09093C2028093C102FE0138
:101D1000329644C0FE01E20FF31F8193919322504B
:101D20003109398328833AC02091BF023091C00223
:101D3000232B41F420910501309106013093C0021C
:101D40002093BF0220910301309104012115310538
:101D500041F42DB73EB74091070150910801241B73
:101D6000350BE091BF02F091C002E217F307A0F437
:101D70002E1B3F0B2817390778F0AC014E5F5F4FE1
:101D80002417350748F04E0F5F1F5093C002409351
:101D9000BF028193919302C0E0E0F0E0CF01DF91B8
:101DA000CF910895CF93DF93009709F487C0FC018A
:101DB000329713821282C091C102D091C202209741
:101DC00081F420813181280F391F8091BF029091C9
:101DD000C0028217930779F5F093C002E093BF0227
:101DE0006DC0DE0120E030E0AE17BF0750F4129660
:101DF0004D915C9113979D014115510509F1DA014F
:101E0000F3CFB383A28340815181840F951F8A173A
:101E10009B0771F48D919C911197840F951F0296E9
:101E20009183808312968D919C91139793838283E3
:101E30002115310529F4F093C202E093C1023EC09E
:101E4000D9011396FC93EE9312974D915D91A40FD7
:101E5000B51FEA17FB0779F480819181840F951FE4
:101E60000296D90111969C938E9382819381139649
:101E70009C938E931297E0E0F0E08A819B8100971B
:101E800019F0FE01EC01F9CFCE01029628813981CB
:101E9000820F931F2091BF023091C002281739078B
:101EA00069F4309729F41092C2021092C10202C064
:101EB00013821282D093C002C093BF02DF91CF91F0
:101EC0000895F8940C946412FB01DC0102C00190A7
:101ED0000D9241505040D8F70895FB01DC018D91DF
:101EE000019080190110D9F3990B0895FB01DC01D1
:101EF00001900D920020E1F708955058BB27AA27C2
:101F00000ED0C5C18ED130F093D120F031F49F3F77
:101F100011F41EF45EC10EF4E095E7FB54C1E92F05
:101F2000D8D180F3BA17620773078407950718F0B2
:101F300071F49EF5F0C10EF4E0950B2EBA2FA02D92
:101F40000B01B90190010C01CA01A0011124FF2766
:101F5000591B99F0593F50F4503E68F11A16F04061
:101F6000A22F232F342F4427585FF3CF4695379560
:101F70002795A795F0405395C9F77EF41F16BA0B25
:101F8000620B730B840BBAF09150A1F0FF0FBB1FD3
:101F9000661F771F881FC2F70EC0BA0F621F731F1C
:101FA000841F48F4879577956795B795F7959E3F79
:101FB00008F0B3CF9395880F08F09927EE0F979507
:101FC00087950895DCD008F481E0089539D1E39530
:101FD0006FC10CD05CC12CD140F023D130F021F482
:101FE0005F3F19F0F0C0511197C1F3C072D198F35F
:101FF0009923C9F35523B1F3951B550BBB27AA278A
:1020000062177307840738F09F5F5F4F220F331FFB
:10201000441FAA1FA9F333D00E2E3AF0E0E830D0C7
:1020200091505040E695001CCAF729D0FE2F27D0CA
:10203000660F771F881FBB1F261737074807AB0798
:10204000B0E809F0BB0B802DBF01FF2793585F4F0D
:102050002AF09E3F510568F0B6C05EC15F3FECF3C9
:10206000983EDCF3869577956795B795F7959F5FD2
:10207000C9F7880F911D9695879597F90895E1E026
:10208000660F771F881FBB1F621773078407BA0785
:1020900020F0621B730B840BBA0BEE1F88F7E095E0
:1020A000089504D06894B11137C108951AD188F009
:1020B0009F5790F0B92F9927B751A0F0D1F0660F34
:1020C000771F881F991F1AF0BA95C9F712C0B1304F
:1020D00081F021D1B1E008951EC1672F782F8827A4
:1020E000B85F39F0B93FCCF3869577956795B3958E
:1020F000D9F73EF490958095709561957F4F8F4FFD
:102100009F4F0895E89409C097FB3EF49095809501
:10211000709561957F4F8F4F9F4F9923A9F0F92FAD
:1021200096E9BB279395F695879577956795B7952B
:10213000F111F8CFFAF4BB0F11F460FF1BC06F5F11
:102140007F4F8F4F9F4F16C0882311F096E911C023
:10215000772321F09EE8872F762F05C0662371F044
:1021600096E8862F70E060E02AF09A95660F771F58
:10217000881FDAF7880F9695879597F90895990F34
:102180000008550FAA0BE0E8FEEF16161706E80741
:10219000F907C0F012161306E407F50798F0621B62
:1021A000730B840B950B39F40A2661F0232B242B37
:1021B000252B21F408950A2609F4A140A6958FEF56
:1021C000811D811D089597F99F6780E870E060E0A8
:1021D00008959FEF80EC0895DF93CF931F930F93A3
:1021E000FF92EF92DF927B018C01689405C0DA2E9A
:1021F000EF01A8D0FE01E894A59125913591459174
:102200005591AEF3EF018BDEFE019701A801DA9440
:1022100079F7DF90EF90FF900F911F91CF91DF91B1
:10222000089500240A94161617061806090608953C
:1022300000240A9412161306140605060895C9CF41
:1022400050D0E8F3E894E0E0BB279F57F0F02AED88
:102250003FE049EC06C0EE0FBB0F661F771F881FDB
:1022600028F0B23A62077307840728F0B25A620B6B
:10227000730B840BE3959A9572F7803830F49A9536
:10228000BB0F661F771F881FD2F79048BEC0092E6C
:102290000394000C11F4882352F0BB0F40F4BF2BC1
:1022A00011F460FF04C06F5F7F4F8F4F9F4F089501
:1022B000EF93E0FF06C0A2EA2AED3FE049EC5FEBB6
:1022C0002EDEE5DF0F90039401FC9058E8E6F0E085
:1022D000A8C057FD9058440F551F59F05F3F71F04B
:1022E0004795880F97FB991F61F09F3F79F087957D
:1022F0000895121613061406551FF2CF4695F1DF06
:1023000008C0161617061806991FF1CF8695710595
:10231000610508940895E894BB2766277727CB01C9
:1023200097F908952CDF08F48FEF08950BD0AFCF05
:1023300078DF28F07DDF18F0952309F044CF49CFEE
:102340001124EACFC6DFA0F3959FD1F3950F50E09B
:10235000551F629FF001729FBB27F00DB11D639F57
:10236000AA27F00DB11DAA1F649F6627B00DA11DFD
:10237000661F829F2227B00DA11D621F739FB00DA3
:10238000A11D621F839FA00D611D221F749F332713
:10239000A00D611D231F849F600D211D822F762FAC
:1023A0006A2F11249F5750408AF0E1F088234AF0A9
:1023B000EE0FFF1FBB1F661F771F881F91505040F5
:1023C000A9F79E3F510570F0FECEA6CF5F3FECF31C
:1023D000983EDCF3869577956795B795F795E795E1
:1023E0009F5FC1F7FE2B880F911D9695879597F9F2
:1023F00008959F9325DF0F9007FCEE5F59CFBFDE56
:10240000880B990B08959F3F31F0915020F48795E8
:1024100077956795B795880F911D9695879597F94C
:1024200008959F938F937F936F93FF93EF939B01F7
:10243000AC017CDFEF91FF91CFDE2F913F914F9167
:102440005F9174CFA1E21A2EAA1BBB1BFD010DC028
:10245000AA1FBB1FEE1FFF1FA217B307E407F50754
:1024600020F0A21BB30BE40BF50B661F771F881F30
:10247000991F1A9469F760957095809590959B01C6
:10248000AC01BD01CF0108950E945512A59F900D8A
:10249000B49F900DA49F800D911D11240895EE0FFF
:1024A000FF1F0590F491E02D0994A29FB001B39F06
:1024B000C001A39F700D811D1124911DB29F700D4D
:0C24C000811D1124911D0895F894FFCF98
:1024CC000101010000C30280003F626174746572F7
:1024DC0079003F62617474657279200021737465B0
:1024EC006572002168616C74200021726F6E20008F
:1024FC0021626F6E200021676F6E200021726F6663
:10250C0066200021676F6666200021626F66662078
:10251C00002172666F7277200021726261636B20FA
:10252C0000216C666F72772000216C6261636B20F6
:10253C00003F7820003F7920003F7468657461206B
:10254C000021737465657220002168616C74002130
:10255C00726F6E0021626F6E0021676F6E002172C8
:10256C006F66660021676F66660021626F666600A3
:10257C002172666F72770021726261636B00216C4D
:10258C00666F727700216C6261636B003F78003F6D
:10259C0079003F7468657461006E616E00696E66E7
:1025AC00006F7666002E00000000002D0B4C06D943
:0825BC000A020BE90A220B00E0
:00000001FF
